{
  "contracts/lottery.sol": {
    "Lottery": {
      "abi": [
        {
          "inputs": [
            {
              "internalType": "address",
              "name": "vrfCoordinatorV2",
              "type": "address"
            },
            {
              "internalType": "uint256",
              "name": "_entranceFee",
              "type": "uint256"
            },
            {
              "internalType": "bytes32",
              "name": "gaslane",
              "type": "bytes32"
            },
            {
              "internalType": "uint64",
              "name": "subscriptionId",
              "type": "uint64"
            },
            {
              "internalType": "uint32",
              "name": "callbackGasLimit",
              "type": "uint32"
            },
            {
              "internalType": "uint256",
              "name": "interval",
              "type": "uint256"
            }
          ],
          "stateMutability": "nonpayable",
          "type": "constructor"
        },
        {
          "inputs": [],
          "name": "Lottery__MoneyNotSent",
          "type": "error"
        },
        {
          "inputs": [],
          "name": "Lottery__NotAvailable",
          "type": "error"
        },
        {
          "inputs": [
            {
              "internalType": "uint256",
              "name": "balance",
              "type": "uint256"
            },
            {
              "internalType": "uint256",
              "name": "numPlayers",
              "type": "uint256"
            },
            {
              "internalType": "uint256",
              "name": "raffleState",
              "type": "uint256"
            }
          ],
          "name": "Lottery__UpkeepNotNeeded",
          "type": "error"
        },
        {
          "inputs": [],
          "name": "Lottery__sendMoreEth",
          "type": "error"
        },
        {
          "inputs": [
            {
              "internalType": "address",
              "name": "have",
              "type": "address"
            },
            {
              "internalType": "address",
              "name": "want",
              "type": "address"
            }
          ],
          "name": "OnlyCoordinatorCanFulfill",
          "type": "error"
        },
        {
          "anonymous": false,
          "inputs": [
            {
              "indexed": true,
              "internalType": "address",
              "name": "winnners",
              "type": "address"
            }
          ],
          "name": "PastWinners",
          "type": "event"
        },
        {
          "anonymous": false,
          "inputs": [
            {
              "indexed": true,
              "internalType": "uint256",
              "name": "_amount",
              "type": "uint256"
            },
            {
              "indexed": true,
              "internalType": "address",
              "name": "_player",
              "type": "address"
            }
          ],
          "name": "newPlayer",
          "type": "event"
        },
        {
          "anonymous": false,
          "inputs": [
            {
              "indexed": true,
              "internalType": "uint256",
              "name": "requestId",
              "type": "uint256"
            }
          ],
          "name": "requestRandomWinner",
          "type": "event"
        },
        {
          "inputs": [
            {
              "internalType": "bytes",
              "name": "",
              "type": "bytes"
            }
          ],
          "name": "checkUpkeep",
          "outputs": [
            {
              "internalType": "bool",
              "name": "upkeepNeeded",
              "type": "bool"
            },
            {
              "internalType": "bytes",
              "name": "",
              "type": "bytes"
            }
          ],
          "stateMutability": "nonpayable",
          "type": "function"
        },
        {
          "inputs": [],
          "name": "enterLottery",
          "outputs": [],
          "stateMutability": "payable",
          "type": "function"
        },
        {
          "inputs": [],
          "name": "getEntranceFee",
          "outputs": [
            {
              "internalType": "uint256",
              "name": "",
              "type": "uint256"
            }
          ],
          "stateMutability": "view",
          "type": "function"
        },
        {
          "inputs": [],
          "name": "getNumWords",
          "outputs": [
            {
              "internalType": "uint256",
              "name": "",
              "type": "uint256"
            }
          ],
          "stateMutability": "pure",
          "type": "function"
        },
        {
          "inputs": [
            {
              "internalType": "uint256",
              "name": "index",
              "type": "uint256"
            }
          ],
          "name": "getPlayer",
          "outputs": [
            {
              "internalType": "address",
              "name": "",
              "type": "address"
            }
          ],
          "stateMutability": "view",
          "type": "function"
        },
        {
          "inputs": [],
          "name": "getRaffleState",
          "outputs": [
            {
              "internalType": "enum Lottery.RaffleState",
              "name": "",
              "type": "uint8"
            }
          ],
          "stateMutability": "view",
          "type": "function"
        },
        {
          "inputs": [],
          "name": "getRecentWinner",
          "outputs": [
            {
              "internalType": "address",
              "name": "",
              "type": "address"
            }
          ],
          "stateMutability": "view",
          "type": "function"
        },
        {
          "inputs": [
            {
              "internalType": "bytes",
              "name": "",
              "type": "bytes"
            }
          ],
          "name": "performUpkeep",
          "outputs": [],
          "stateMutability": "nonpayable",
          "type": "function"
        },
        {
          "inputs": [
            {
              "internalType": "uint256",
              "name": "requestId",
              "type": "uint256"
            },
            {
              "internalType": "uint256[]",
              "name": "randomWords",
              "type": "uint256[]"
            }
          ],
          "name": "rawFulfillRandomWords",
          "outputs": [],
          "stateMutability": "nonpayable",
          "type": "function"
        }
      ],
      "devdoc": {
        "kind": "dev",
        "methods": {},
        "version": 1
      },
      "evm": {
        "bytecode": {
          "linkReferences": {},
          "object": "6101606040523480156200001257600080fd5b5060405162001822380380620018228339818101604052810190620000389190620001d1565b858073ffffffffffffffffffffffffffffffffffffffff1660808173ffffffffffffffffffffffffffffffffffffffff1660601b81525050508460a081815250508573ffffffffffffffffffffffffffffffffffffffff1660c08173ffffffffffffffffffffffffffffffffffffffff1660601b815250508360e081815250508267ffffffffffffffff166101008167ffffffffffffffff1660c01b815250508163ffffffff166101208163ffffffff1660e01b815250506000600160146101000a81548160ff021916908360018111156200013d577f4e487b7100000000000000000000000000000000000000000000000000000000600052602160045260246000fd5b02179055504260028190555080610140818152505050505050505062000355565b6000815190506200016f81620002d3565b92915050565b6000815190506200018681620002ed565b92915050565b6000815190506200019d8162000307565b92915050565b600081519050620001b48162000321565b92915050565b600081519050620001cb816200033b565b92915050565b60008060008060008060c08789031215620001eb57600080fd5b6000620001fb89828a016200015e565b96505060206200020e89828a016200018c565b95505060406200022189828a0162000175565b94505060606200023489828a01620001ba565b93505060806200024789828a01620001a3565b92505060a06200025a89828a016200018c565b9150509295509295509295565b6000620002748262000285565b9050919050565b6000819050919050565b600073ffffffffffffffffffffffffffffffffffffffff82169050919050565b6000819050919050565b600063ffffffff82169050919050565b600067ffffffffffffffff82169050919050565b620002de8162000267565b8114620002ea57600080fd5b50565b620002f8816200027b565b81146200030457600080fd5b50565b6200031281620002a5565b81146200031e57600080fd5b50565b6200032c81620002af565b81146200033857600080fd5b50565b6200034681620002bf565b81146200035257600080fd5b50565b60805160601c60a05160c05160601c60e0516101005160c01c6101205160e01c61014051611458620003ca600039600061061e015260006104900152600061046d0152600061044c01526000610410015260008181610212015261068a01526000818161024f01526102a301526114586000f3fe6080604052600436106100865760003560e01c8063473f1ddc11610059578063473f1ddc1461013357806353a2c19a1461015e5780636e04ff0d14610189578063c1af5785146101c7578063e55ae4e8146101d157610086565b806309bc33a71461008b578063115cbaf5146100b65780631fe543e3146100e15780634585e33b1461010a575b600080fd5b34801561009757600080fd5b506100a061020e565b6040516100ad9190611099565b60405180910390f35b3480156100c257600080fd5b506100cb610236565b6040516100d8919061107e565b60405180910390f35b3480156100ed57600080fd5b5061010860048036038101906101039190610e6b565b61024d565b005b34801561011657600080fd5b50610131600480360381019061012c9190610d93565b61030d565b005b34801561013f57600080fd5b50610148610558565b6040516101559190610fb7565b60405180910390f35b34801561016a57600080fd5b50610173610582565b6040516101809190611099565b60405180910390f35b34801561019557600080fd5b506101b060048036038101906101ab9190610dd8565b61058f565b6040516101be929190610ffb565b60405180910390f35b6101cf610688565b005b3480156101dd57600080fd5b506101f860048036038101906101f39190610e19565b610844565b6040516102059190610fb7565b60405180910390f35b60007f0000000000000000000000000000000000000000000000000000000000000000905090565b6000600160149054906101000a900460ff16905090565b7f000000000000000000000000000000000000000000000000000000000000000073ffffffffffffffffffffffffffffffffffffffff163373ffffffffffffffffffffffffffffffffffffffff16146102ff57337f00000000000000000000000000000000000000000000000000000000000000006040517f1cf993f40000000000000000000000000000000000000000000000000000000081526004016102f6929190610fd2565b60405180910390fd5b61030982826108b1565b5050565b60006103276040518060200160405280600081525061058f565b509050806103bc5747600080549050600160149054906101000a900460ff16600181111561037e577f4e487b7100000000000000000000000000000000000000000000000000000000600052602160045260246000fd5b6040517f6e195f250000000000000000000000000000000000000000000000000000000081526004016103b3939291906110b4565b60405180910390fd5b60018060146101000a81548160ff02191690836001811115610407577f4e487b7100000000000000000000000000000000000000000000000000000000600052602160045260246000fd5b021790555060007f000000000000000000000000000000000000000000000000000000000000000073ffffffffffffffffffffffffffffffffffffffff16635d3b1d307f00000000000000000000000000000000000000000000000000000000000000007f000000000000000000000000000000000000000000000000000000000000000060037f000000000000000000000000000000000000000000000000000000000000000060016040518663ffffffff1660e01b81526004016104d195949392919061102b565b602060405180830381600087803b1580156104eb57600080fd5b505af11580156104ff573d6000803e3d6000fd5b505050506040513d601f19601f820116820180604052508101906105239190610e42565b9050807f5e42a34530a308d44a84f0c245afbe71f18da82562b8d6ce22888f2ba8d3a28e60405160405180910390a250505050565b6000600160009054906101000a900473ffffffffffffffffffffffffffffffffffffffff16905090565b6000600161ffff16905090565b600060606000600160149054906101000a900460ff1660018111156105dd577f4e487b7100000000000000000000000000000000000000000000000000000000600052602160045260246000fd5b60006001811115610617577f4e487b7100000000000000000000000000000000000000000000000000000000600052602160045260246000fd5b14905060007f00000000000000000000000000000000000000000000000000000000000000006002544261064b9190611194565b1190506000806000805490501190506000804711905083801561066b5750825b80156106745750815b801561067d5750805b955050505050915091565b7f00000000000000000000000000000000000000000000000000000000000000003410156106e2576040517f84da4c9d00000000000000000000000000000000000000000000000000000000815260040160405180910390fd5b6000600181111561071c577f4e487b7100000000000000000000000000000000000000000000000000000000600052602160045260246000fd5b600160149054906101000a900460ff166001811115610764577f4e487b7100000000000000000000000000000000000000000000000000000000600052602160045260246000fd5b1461079b576040517f3c415f9900000000000000000000000000000000000000000000000000000000815260040160405180910390fd5b6000339080600181540180825580915050600190039060005260206000200160009091909190916101000a81548173ffffffffffffffffffffffffffffffffffffffff021916908373ffffffffffffffffffffffffffffffffffffffff1602179055503373ffffffffffffffffffffffffffffffffffffffff16347f24db4f65d53d68dc208151fc0a00d767da628055a922836a07edef3b5732f9a260405160405180910390a3565b600080828154811061087f577f4e487b7100000000000000000000000000000000000000000000000000000000600052603260045260246000fd5b9060005260206000200160009054906101000a900473ffffffffffffffffffffffffffffffffffffffff169050919050565b60008080549050826000815181106108f2577f4e487b7100000000000000000000000000000000000000000000000000000000600052603260045260246000fd5b602002602001015161090491906112f6565b90506000808281548110610941577f4e487b7100000000000000000000000000000000000000000000000000000000600052603260045260246000fd5b9060005260206000200160009054906101000a900473ffffffffffffffffffffffffffffffffffffffff16905080600160006101000a81548173ffffffffffffffffffffffffffffffffffffffff021916908373ffffffffffffffffffffffffffffffffffffffff1602179055506000600160146101000a81548160ff021916908360018111156109fb577f4e487b7100000000000000000000000000000000000000000000000000000000600052602160045260246000fd5b0217905550600067ffffffffffffffff811115610a41577f4e487b7100000000000000000000000000000000000000000000000000000000600052604160045260246000fd5b604051908082528060200260200182016040528015610a6f5781602001602082028036833780820191505090505b5060009080519060200190610a85929190610b7a565b504260028190555060008173ffffffffffffffffffffffffffffffffffffffff1647604051610ab390610fa2565b60006040518083038185875af1925050503d8060008114610af0576040519150601f19603f3d011682016040523d82523d6000602084013e610af5565b606091505b5050905080610b30576040517f3a47374900000000000000000000000000000000000000000000000000000000815260040160405180910390fd5b8173ffffffffffffffffffffffffffffffffffffffff167f601e33d170071d70bb66dd1d0ea49f34527d57cbf762ee37fd7c54f7fc12ef5a60405160405180910390a25050505050565b828054828255906000526020600020908101928215610bf3579160200282015b82811115610bf25782518260006101000a81548173ffffffffffffffffffffffffffffffffffffffff021916908373ffffffffffffffffffffffffffffffffffffffff16021790555091602001919060010190610b9a565b5b509050610c009190610c04565b5090565b5b80821115610c1d576000816000905550600101610c05565b5090565b6000610c34610c2f84611110565b6110eb565b90508083825260208201905082856020860282011115610c5357600080fd5b60005b85811015610c835781610c698882610d69565b845260208401935060208301925050600181019050610c56565b5050509392505050565b6000610ca0610c9b8461113c565b6110eb565b905082815260208101848484011115610cb857600080fd5b610cc3848285611283565b509392505050565b600082601f830112610cdc57600080fd5b8135610cec848260208601610c21565b91505092915050565b60008083601f840112610d0757600080fd5b8235905067ffffffffffffffff811115610d2057600080fd5b602083019150836001820283011115610d3857600080fd5b9250929050565b600082601f830112610d5057600080fd5b8135610d60848260208601610c8d565b91505092915050565b600081359050610d788161140b565b92915050565b600081519050610d8d8161140b565b92915050565b60008060208385031215610da657600080fd5b600083013567ffffffffffffffff811115610dc057600080fd5b610dcc85828601610cf5565b92509250509250929050565b600060208284031215610dea57600080fd5b600082013567ffffffffffffffff811115610e0457600080fd5b610e1084828501610d3f565b91505092915050565b600060208284031215610e2b57600080fd5b6000610e3984828501610d69565b91505092915050565b600060208284031215610e5457600080fd5b6000610e6284828501610d7e565b91505092915050565b60008060408385031215610e7e57600080fd5b6000610e8c85828601610d69565b925050602083013567ffffffffffffffff811115610ea957600080fd5b610eb585828601610ccb565b9150509250929050565b610ec8816111c8565b82525050565b610ed7816111da565b82525050565b610ee6816111e6565b82525050565b6000610ef78261116d565b610f018185611178565b9350610f11818560208601611292565b610f1a816113e3565b840191505092915050565b610f2e8161125f565b82525050565b6000610f41600083611189565b9150610f4c826113f4565b600082019050919050565b610f6081611203565b82525050565b610f6f81611271565b82525050565b610f7e81611231565b82525050565b610f8d8161123b565b82525050565b610f9c8161124b565b82525050565b6000610fad82610f34565b9150819050919050565b6000602082019050610fcc6000830184610ebf565b92915050565b6000604082019050610fe76000830185610ebf565b610ff46020830184610ebf565b9392505050565b60006040820190506110106000830185610ece565b81810360208301526110228184610eec565b90509392505050565b600060a0820190506110406000830188610edd565b61104d6020830187610f93565b61105a6040830186610f57565b6110676060830185610f84565b6110746080830184610f66565b9695505050505050565b60006020820190506110936000830184610f25565b92915050565b60006020820190506110ae6000830184610f75565b92915050565b60006060820190506110c96000830186610f75565b6110d66020830185610f75565b6110e36040830184610f75565b949350505050565b60006110f5611106565b905061110182826112c5565b919050565b6000604051905090565b600067ffffffffffffffff82111561112b5761112a6113b4565b5b602082029050602081019050919050565b600067ffffffffffffffff821115611157576111566113b4565b5b611160826113e3565b9050602081019050919050565b600081519050919050565b600082825260208201905092915050565b600081905092915050565b600061119f82611231565b91506111aa83611231565b9250828210156111bd576111bc611327565b5b828203905092915050565b60006111d382611211565b9050919050565b60008115159050919050565b6000819050919050565b60008190506111fe826113f7565b919050565b600061ffff82169050919050565b600073ffffffffffffffffffffffffffffffffffffffff82169050919050565b6000819050919050565b600063ffffffff82169050919050565b600067ffffffffffffffff82169050919050565b600061126a826111f0565b9050919050565b600061127c82611203565b9050919050565b82818337600083830152505050565b60005b838110156112b0578082015181840152602081019050611295565b838111156112bf576000848401525b50505050565b6112ce826113e3565b810181811067ffffffffffffffff821117156112ed576112ec6113b4565b5b80604052505050565b600061130182611231565b915061130c83611231565b92508261131c5761131b611356565b5b828206905092915050565b7f4e487b7100000000000000000000000000000000000000000000000000000000600052601160045260246000fd5b7f4e487b7100000000000000000000000000000000000000000000000000000000600052601260045260246000fd5b7f4e487b7100000000000000000000000000000000000000000000000000000000600052602160045260246000fd5b7f4e487b7100000000000000000000000000000000000000000000000000000000600052604160045260246000fd5b6000601f19601f8301169050919050565b50565b6002811061140857611407611385565b5b50565b61141481611231565b811461141f57600080fd5b5056fea2646970667358221220c2d608ca551a22dd4c7f7607841237518389cd2657fdc789cb984e3012bfaa7a64736f6c63430008040033",
          "opcodes": "PUSH2 0x160 PUSH1 0x40 MSTORE CALLVALUE DUP1 ISZERO PUSH3 0x12 JUMPI PUSH1 0x0 DUP1 REVERT JUMPDEST POP PUSH1 0x40 MLOAD PUSH3 0x1822 CODESIZE SUB DUP1 PUSH3 0x1822 DUP4 CODECOPY DUP2 DUP2 ADD PUSH1 0x40 MSTORE DUP2 ADD SWAP1 PUSH3 0x38 SWAP2 SWAP1 PUSH3 0x1D1 JUMP JUMPDEST DUP6 DUP1 PUSH20 0xFFFFFFFFFFFFFFFFFFFFFFFFFFFFFFFFFFFFFFFF AND PUSH1 0x80 DUP2 PUSH20 0xFFFFFFFFFFFFFFFFFFFFFFFFFFFFFFFFFFFFFFFF AND PUSH1 0x60 SHL DUP2 MSTORE POP POP POP DUP5 PUSH1 0xA0 DUP2 DUP2 MSTORE POP POP DUP6 PUSH20 0xFFFFFFFFFFFFFFFFFFFFFFFFFFFFFFFFFFFFFFFF AND PUSH1 0xC0 DUP2 PUSH20 0xFFFFFFFFFFFFFFFFFFFFFFFFFFFFFFFFFFFFFFFF AND PUSH1 0x60 SHL DUP2 MSTORE POP POP DUP4 PUSH1 0xE0 DUP2 DUP2 MSTORE POP POP DUP3 PUSH8 0xFFFFFFFFFFFFFFFF AND PUSH2 0x100 DUP2 PUSH8 0xFFFFFFFFFFFFFFFF AND PUSH1 0xC0 SHL DUP2 MSTORE POP POP DUP2 PUSH4 0xFFFFFFFF AND PUSH2 0x120 DUP2 PUSH4 0xFFFFFFFF AND PUSH1 0xE0 SHL DUP2 MSTORE POP POP PUSH1 0x0 PUSH1 0x1 PUSH1 0x14 PUSH2 0x100 EXP DUP2 SLOAD DUP2 PUSH1 0xFF MUL NOT AND SWAP1 DUP4 PUSH1 0x1 DUP2 GT ISZERO PUSH3 0x13D JUMPI PUSH32 0x4E487B7100000000000000000000000000000000000000000000000000000000 PUSH1 0x0 MSTORE PUSH1 0x21 PUSH1 0x4 MSTORE PUSH1 0x24 PUSH1 0x0 REVERT JUMPDEST MUL OR SWAP1 SSTORE POP TIMESTAMP PUSH1 0x2 DUP2 SWAP1 SSTORE POP DUP1 PUSH2 0x140 DUP2 DUP2 MSTORE POP POP POP POP POP POP POP POP PUSH3 0x355 JUMP JUMPDEST PUSH1 0x0 DUP2 MLOAD SWAP1 POP PUSH3 0x16F DUP2 PUSH3 0x2D3 JUMP JUMPDEST SWAP3 SWAP2 POP POP JUMP JUMPDEST PUSH1 0x0 DUP2 MLOAD SWAP1 POP PUSH3 0x186 DUP2 PUSH3 0x2ED JUMP JUMPDEST SWAP3 SWAP2 POP POP JUMP JUMPDEST PUSH1 0x0 DUP2 MLOAD SWAP1 POP PUSH3 0x19D DUP2 PUSH3 0x307 JUMP JUMPDEST SWAP3 SWAP2 POP POP JUMP JUMPDEST PUSH1 0x0 DUP2 MLOAD SWAP1 POP PUSH3 0x1B4 DUP2 PUSH3 0x321 JUMP JUMPDEST SWAP3 SWAP2 POP POP JUMP JUMPDEST PUSH1 0x0 DUP2 MLOAD SWAP1 POP PUSH3 0x1CB DUP2 PUSH3 0x33B JUMP JUMPDEST SWAP3 SWAP2 POP POP JUMP JUMPDEST PUSH1 0x0 DUP1 PUSH1 0x0 DUP1 PUSH1 0x0 DUP1 PUSH1 0xC0 DUP8 DUP10 SUB SLT ISZERO PUSH3 0x1EB JUMPI PUSH1 0x0 DUP1 REVERT JUMPDEST PUSH1 0x0 PUSH3 0x1FB DUP10 DUP3 DUP11 ADD PUSH3 0x15E JUMP JUMPDEST SWAP7 POP POP PUSH1 0x20 PUSH3 0x20E DUP10 DUP3 DUP11 ADD PUSH3 0x18C JUMP JUMPDEST SWAP6 POP POP PUSH1 0x40 PUSH3 0x221 DUP10 DUP3 DUP11 ADD PUSH3 0x175 JUMP JUMPDEST SWAP5 POP POP PUSH1 0x60 PUSH3 0x234 DUP10 DUP3 DUP11 ADD PUSH3 0x1BA JUMP JUMPDEST SWAP4 POP POP PUSH1 0x80 PUSH3 0x247 DUP10 DUP3 DUP11 ADD PUSH3 0x1A3 JUMP JUMPDEST SWAP3 POP POP PUSH1 0xA0 PUSH3 0x25A DUP10 DUP3 DUP11 ADD PUSH3 0x18C JUMP JUMPDEST SWAP2 POP POP SWAP3 SWAP6 POP SWAP3 SWAP6 POP SWAP3 SWAP6 JUMP JUMPDEST PUSH1 0x0 PUSH3 0x274 DUP3 PUSH3 0x285 JUMP JUMPDEST SWAP1 POP SWAP2 SWAP1 POP JUMP JUMPDEST PUSH1 0x0 DUP2 SWAP1 POP SWAP2 SWAP1 POP JUMP JUMPDEST PUSH1 0x0 PUSH20 0xFFFFFFFFFFFFFFFFFFFFFFFFFFFFFFFFFFFFFFFF DUP3 AND SWAP1 POP SWAP2 SWAP1 POP JUMP JUMPDEST PUSH1 0x0 DUP2 SWAP1 POP SWAP2 SWAP1 POP JUMP JUMPDEST PUSH1 0x0 PUSH4 0xFFFFFFFF DUP3 AND SWAP1 POP SWAP2 SWAP1 POP JUMP JUMPDEST PUSH1 0x0 PUSH8 0xFFFFFFFFFFFFFFFF DUP3 AND SWAP1 POP SWAP2 SWAP1 POP JUMP JUMPDEST PUSH3 0x2DE DUP2 PUSH3 0x267 JUMP JUMPDEST DUP2 EQ PUSH3 0x2EA JUMPI PUSH1 0x0 DUP1 REVERT JUMPDEST POP JUMP JUMPDEST PUSH3 0x2F8 DUP2 PUSH3 0x27B JUMP JUMPDEST DUP2 EQ PUSH3 0x304 JUMPI PUSH1 0x0 DUP1 REVERT JUMPDEST POP JUMP JUMPDEST PUSH3 0x312 DUP2 PUSH3 0x2A5 JUMP JUMPDEST DUP2 EQ PUSH3 0x31E JUMPI PUSH1 0x0 DUP1 REVERT JUMPDEST POP JUMP JUMPDEST PUSH3 0x32C DUP2 PUSH3 0x2AF JUMP JUMPDEST DUP2 EQ PUSH3 0x338 JUMPI PUSH1 0x0 DUP1 REVERT JUMPDEST POP JUMP JUMPDEST PUSH3 0x346 DUP2 PUSH3 0x2BF JUMP JUMPDEST DUP2 EQ PUSH3 0x352 JUMPI PUSH1 0x0 DUP1 REVERT JUMPDEST POP JUMP JUMPDEST PUSH1 0x80 MLOAD PUSH1 0x60 SHR PUSH1 0xA0 MLOAD PUSH1 0xC0 MLOAD PUSH1 0x60 SHR PUSH1 0xE0 MLOAD PUSH2 0x100 MLOAD PUSH1 0xC0 SHR PUSH2 0x120 MLOAD PUSH1 0xE0 SHR PUSH2 0x140 MLOAD PUSH2 0x1458 PUSH3 0x3CA PUSH1 0x0 CODECOPY PUSH1 0x0 PUSH2 0x61E ADD MSTORE PUSH1 0x0 PUSH2 0x490 ADD MSTORE PUSH1 0x0 PUSH2 0x46D ADD MSTORE PUSH1 0x0 PUSH2 0x44C ADD MSTORE PUSH1 0x0 PUSH2 0x410 ADD MSTORE PUSH1 0x0 DUP2 DUP2 PUSH2 0x212 ADD MSTORE PUSH2 0x68A ADD MSTORE PUSH1 0x0 DUP2 DUP2 PUSH2 0x24F ADD MSTORE PUSH2 0x2A3 ADD MSTORE PUSH2 0x1458 PUSH1 0x0 RETURN INVALID PUSH1 0x80 PUSH1 0x40 MSTORE PUSH1 0x4 CALLDATASIZE LT PUSH2 0x86 JUMPI PUSH1 0x0 CALLDATALOAD PUSH1 0xE0 SHR DUP1 PUSH4 0x473F1DDC GT PUSH2 0x59 JUMPI DUP1 PUSH4 0x473F1DDC EQ PUSH2 0x133 JUMPI DUP1 PUSH4 0x53A2C19A EQ PUSH2 0x15E JUMPI DUP1 PUSH4 0x6E04FF0D EQ PUSH2 0x189 JUMPI DUP1 PUSH4 0xC1AF5785 EQ PUSH2 0x1C7 JUMPI DUP1 PUSH4 0xE55AE4E8 EQ PUSH2 0x1D1 JUMPI PUSH2 0x86 JUMP JUMPDEST DUP1 PUSH4 0x9BC33A7 EQ PUSH2 0x8B JUMPI DUP1 PUSH4 0x115CBAF5 EQ PUSH2 0xB6 JUMPI DUP1 PUSH4 0x1FE543E3 EQ PUSH2 0xE1 JUMPI DUP1 PUSH4 0x4585E33B EQ PUSH2 0x10A JUMPI JUMPDEST PUSH1 0x0 DUP1 REVERT JUMPDEST CALLVALUE DUP1 ISZERO PUSH2 0x97 JUMPI PUSH1 0x0 DUP1 REVERT JUMPDEST POP PUSH2 0xA0 PUSH2 0x20E JUMP JUMPDEST PUSH1 0x40 MLOAD PUSH2 0xAD SWAP2 SWAP1 PUSH2 0x1099 JUMP JUMPDEST PUSH1 0x40 MLOAD DUP1 SWAP2 SUB SWAP1 RETURN JUMPDEST CALLVALUE DUP1 ISZERO PUSH2 0xC2 JUMPI PUSH1 0x0 DUP1 REVERT JUMPDEST POP PUSH2 0xCB PUSH2 0x236 JUMP JUMPDEST PUSH1 0x40 MLOAD PUSH2 0xD8 SWAP2 SWAP1 PUSH2 0x107E JUMP JUMPDEST PUSH1 0x40 MLOAD DUP1 SWAP2 SUB SWAP1 RETURN JUMPDEST CALLVALUE DUP1 ISZERO PUSH2 0xED JUMPI PUSH1 0x0 DUP1 REVERT JUMPDEST POP PUSH2 0x108 PUSH1 0x4 DUP1 CALLDATASIZE SUB DUP2 ADD SWAP1 PUSH2 0x103 SWAP2 SWAP1 PUSH2 0xE6B JUMP JUMPDEST PUSH2 0x24D JUMP JUMPDEST STOP JUMPDEST CALLVALUE DUP1 ISZERO PUSH2 0x116 JUMPI PUSH1 0x0 DUP1 REVERT JUMPDEST POP PUSH2 0x131 PUSH1 0x4 DUP1 CALLDATASIZE SUB DUP2 ADD SWAP1 PUSH2 0x12C SWAP2 SWAP1 PUSH2 0xD93 JUMP JUMPDEST PUSH2 0x30D JUMP JUMPDEST STOP JUMPDEST CALLVALUE DUP1 ISZERO PUSH2 0x13F JUMPI PUSH1 0x0 DUP1 REVERT JUMPDEST POP PUSH2 0x148 PUSH2 0x558 JUMP JUMPDEST PUSH1 0x40 MLOAD PUSH2 0x155 SWAP2 SWAP1 PUSH2 0xFB7 JUMP JUMPDEST PUSH1 0x40 MLOAD DUP1 SWAP2 SUB SWAP1 RETURN JUMPDEST CALLVALUE DUP1 ISZERO PUSH2 0x16A JUMPI PUSH1 0x0 DUP1 REVERT JUMPDEST POP PUSH2 0x173 PUSH2 0x582 JUMP JUMPDEST PUSH1 0x40 MLOAD PUSH2 0x180 SWAP2 SWAP1 PUSH2 0x1099 JUMP JUMPDEST PUSH1 0x40 MLOAD DUP1 SWAP2 SUB SWAP1 RETURN JUMPDEST CALLVALUE DUP1 ISZERO PUSH2 0x195 JUMPI PUSH1 0x0 DUP1 REVERT JUMPDEST POP PUSH2 0x1B0 PUSH1 0x4 DUP1 CALLDATASIZE SUB DUP2 ADD SWAP1 PUSH2 0x1AB SWAP2 SWAP1 PUSH2 0xDD8 JUMP JUMPDEST PUSH2 0x58F JUMP JUMPDEST PUSH1 0x40 MLOAD PUSH2 0x1BE SWAP3 SWAP2 SWAP1 PUSH2 0xFFB JUMP JUMPDEST PUSH1 0x40 MLOAD DUP1 SWAP2 SUB SWAP1 RETURN JUMPDEST PUSH2 0x1CF PUSH2 0x688 JUMP JUMPDEST STOP JUMPDEST CALLVALUE DUP1 ISZERO PUSH2 0x1DD JUMPI PUSH1 0x0 DUP1 REVERT JUMPDEST POP PUSH2 0x1F8 PUSH1 0x4 DUP1 CALLDATASIZE SUB DUP2 ADD SWAP1 PUSH2 0x1F3 SWAP2 SWAP1 PUSH2 0xE19 JUMP JUMPDEST PUSH2 0x844 JUMP JUMPDEST PUSH1 0x40 MLOAD PUSH2 0x205 SWAP2 SWAP1 PUSH2 0xFB7 JUMP JUMPDEST PUSH1 0x40 MLOAD DUP1 SWAP2 SUB SWAP1 RETURN JUMPDEST PUSH1 0x0 PUSH32 0x0 SWAP1 POP SWAP1 JUMP JUMPDEST PUSH1 0x0 PUSH1 0x1 PUSH1 0x14 SWAP1 SLOAD SWAP1 PUSH2 0x100 EXP SWAP1 DIV PUSH1 0xFF AND SWAP1 POP SWAP1 JUMP JUMPDEST PUSH32 0x0 PUSH20 0xFFFFFFFFFFFFFFFFFFFFFFFFFFFFFFFFFFFFFFFF AND CALLER PUSH20 0xFFFFFFFFFFFFFFFFFFFFFFFFFFFFFFFFFFFFFFFF AND EQ PUSH2 0x2FF JUMPI CALLER PUSH32 0x0 PUSH1 0x40 MLOAD PUSH32 0x1CF993F400000000000000000000000000000000000000000000000000000000 DUP2 MSTORE PUSH1 0x4 ADD PUSH2 0x2F6 SWAP3 SWAP2 SWAP1 PUSH2 0xFD2 JUMP JUMPDEST PUSH1 0x40 MLOAD DUP1 SWAP2 SUB SWAP1 REVERT JUMPDEST PUSH2 0x309 DUP3 DUP3 PUSH2 0x8B1 JUMP JUMPDEST POP POP JUMP JUMPDEST PUSH1 0x0 PUSH2 0x327 PUSH1 0x40 MLOAD DUP1 PUSH1 0x20 ADD PUSH1 0x40 MSTORE DUP1 PUSH1 0x0 DUP2 MSTORE POP PUSH2 0x58F JUMP JUMPDEST POP SWAP1 POP DUP1 PUSH2 0x3BC JUMPI SELFBALANCE PUSH1 0x0 DUP1 SLOAD SWAP1 POP PUSH1 0x1 PUSH1 0x14 SWAP1 SLOAD SWAP1 PUSH2 0x100 EXP SWAP1 DIV PUSH1 0xFF AND PUSH1 0x1 DUP2 GT ISZERO PUSH2 0x37E JUMPI PUSH32 0x4E487B7100000000000000000000000000000000000000000000000000000000 PUSH1 0x0 MSTORE PUSH1 0x21 PUSH1 0x4 MSTORE PUSH1 0x24 PUSH1 0x0 REVERT JUMPDEST PUSH1 0x40 MLOAD PUSH32 0x6E195F2500000000000000000000000000000000000000000000000000000000 DUP2 MSTORE PUSH1 0x4 ADD PUSH2 0x3B3 SWAP4 SWAP3 SWAP2 SWAP1 PUSH2 0x10B4 JUMP JUMPDEST PUSH1 0x40 MLOAD DUP1 SWAP2 SUB SWAP1 REVERT JUMPDEST PUSH1 0x1 DUP1 PUSH1 0x14 PUSH2 0x100 EXP DUP2 SLOAD DUP2 PUSH1 0xFF MUL NOT AND SWAP1 DUP4 PUSH1 0x1 DUP2 GT ISZERO PUSH2 0x407 JUMPI PUSH32 0x4E487B7100000000000000000000000000000000000000000000000000000000 PUSH1 0x0 MSTORE PUSH1 0x21 PUSH1 0x4 MSTORE PUSH1 0x24 PUSH1 0x0 REVERT JUMPDEST MUL OR SWAP1 SSTORE POP PUSH1 0x0 PUSH32 0x0 PUSH20 0xFFFFFFFFFFFFFFFFFFFFFFFFFFFFFFFFFFFFFFFF AND PUSH4 0x5D3B1D30 PUSH32 0x0 PUSH32 0x0 PUSH1 0x3 PUSH32 0x0 PUSH1 0x1 PUSH1 0x40 MLOAD DUP7 PUSH4 0xFFFFFFFF AND PUSH1 0xE0 SHL DUP2 MSTORE PUSH1 0x4 ADD PUSH2 0x4D1 SWAP6 SWAP5 SWAP4 SWAP3 SWAP2 SWAP1 PUSH2 0x102B JUMP JUMPDEST PUSH1 0x20 PUSH1 0x40 MLOAD DUP1 DUP4 SUB DUP2 PUSH1 0x0 DUP8 DUP1 EXTCODESIZE ISZERO DUP1 ISZERO PUSH2 0x4EB JUMPI PUSH1 0x0 DUP1 REVERT JUMPDEST POP GAS CALL ISZERO DUP1 ISZERO PUSH2 0x4FF JUMPI RETURNDATASIZE PUSH1 0x0 DUP1 RETURNDATACOPY RETURNDATASIZE PUSH1 0x0 REVERT JUMPDEST POP POP POP POP PUSH1 0x40 MLOAD RETURNDATASIZE PUSH1 0x1F NOT PUSH1 0x1F DUP3 ADD AND DUP3 ADD DUP1 PUSH1 0x40 MSTORE POP DUP2 ADD SWAP1 PUSH2 0x523 SWAP2 SWAP1 PUSH2 0xE42 JUMP JUMPDEST SWAP1 POP DUP1 PUSH32 0x5E42A34530A308D44A84F0C245AFBE71F18DA82562B8D6CE22888F2BA8D3A28E PUSH1 0x40 MLOAD PUSH1 0x40 MLOAD DUP1 SWAP2 SUB SWAP1 LOG2 POP POP POP POP JUMP JUMPDEST PUSH1 0x0 PUSH1 0x1 PUSH1 0x0 SWAP1 SLOAD SWAP1 PUSH2 0x100 EXP SWAP1 DIV PUSH20 0xFFFFFFFFFFFFFFFFFFFFFFFFFFFFFFFFFFFFFFFF AND SWAP1 POP SWAP1 JUMP JUMPDEST PUSH1 0x0 PUSH1 0x1 PUSH2 0xFFFF AND SWAP1 POP SWAP1 JUMP JUMPDEST PUSH1 0x0 PUSH1 0x60 PUSH1 0x0 PUSH1 0x1 PUSH1 0x14 SWAP1 SLOAD SWAP1 PUSH2 0x100 EXP SWAP1 DIV PUSH1 0xFF AND PUSH1 0x1 DUP2 GT ISZERO PUSH2 0x5DD JUMPI PUSH32 0x4E487B7100000000000000000000000000000000000000000000000000000000 PUSH1 0x0 MSTORE PUSH1 0x21 PUSH1 0x4 MSTORE PUSH1 0x24 PUSH1 0x0 REVERT JUMPDEST PUSH1 0x0 PUSH1 0x1 DUP2 GT ISZERO PUSH2 0x617 JUMPI PUSH32 0x4E487B7100000000000000000000000000000000000000000000000000000000 PUSH1 0x0 MSTORE PUSH1 0x21 PUSH1 0x4 MSTORE PUSH1 0x24 PUSH1 0x0 REVERT JUMPDEST EQ SWAP1 POP PUSH1 0x0 PUSH32 0x0 PUSH1 0x2 SLOAD TIMESTAMP PUSH2 0x64B SWAP2 SWAP1 PUSH2 0x1194 JUMP JUMPDEST GT SWAP1 POP PUSH1 0x0 DUP1 PUSH1 0x0 DUP1 SLOAD SWAP1 POP GT SWAP1 POP PUSH1 0x0 DUP1 SELFBALANCE GT SWAP1 POP DUP4 DUP1 ISZERO PUSH2 0x66B JUMPI POP DUP3 JUMPDEST DUP1 ISZERO PUSH2 0x674 JUMPI POP DUP2 JUMPDEST DUP1 ISZERO PUSH2 0x67D JUMPI POP DUP1 JUMPDEST SWAP6 POP POP POP POP POP SWAP2 POP SWAP2 JUMP JUMPDEST PUSH32 0x0 CALLVALUE LT ISZERO PUSH2 0x6E2 JUMPI PUSH1 0x40 MLOAD PUSH32 0x84DA4C9D00000000000000000000000000000000000000000000000000000000 DUP2 MSTORE PUSH1 0x4 ADD PUSH1 0x40 MLOAD DUP1 SWAP2 SUB SWAP1 REVERT JUMPDEST PUSH1 0x0 PUSH1 0x1 DUP2 GT ISZERO PUSH2 0x71C JUMPI PUSH32 0x4E487B7100000000000000000000000000000000000000000000000000000000 PUSH1 0x0 MSTORE PUSH1 0x21 PUSH1 0x4 MSTORE PUSH1 0x24 PUSH1 0x0 REVERT JUMPDEST PUSH1 0x1 PUSH1 0x14 SWAP1 SLOAD SWAP1 PUSH2 0x100 EXP SWAP1 DIV PUSH1 0xFF AND PUSH1 0x1 DUP2 GT ISZERO PUSH2 0x764 JUMPI PUSH32 0x4E487B7100000000000000000000000000000000000000000000000000000000 PUSH1 0x0 MSTORE PUSH1 0x21 PUSH1 0x4 MSTORE PUSH1 0x24 PUSH1 0x0 REVERT JUMPDEST EQ PUSH2 0x79B JUMPI PUSH1 0x40 MLOAD PUSH32 0x3C415F9900000000000000000000000000000000000000000000000000000000 DUP2 MSTORE PUSH1 0x4 ADD PUSH1 0x40 MLOAD DUP1 SWAP2 SUB SWAP1 REVERT JUMPDEST PUSH1 0x0 CALLER SWAP1 DUP1 PUSH1 0x1 DUP2 SLOAD ADD DUP1 DUP3 SSTORE DUP1 SWAP2 POP POP PUSH1 0x1 SWAP1 SUB SWAP1 PUSH1 0x0 MSTORE PUSH1 0x20 PUSH1 0x0 KECCAK256 ADD PUSH1 0x0 SWAP1 SWAP2 SWAP1 SWAP2 SWAP1 SWAP2 PUSH2 0x100 EXP DUP2 SLOAD DUP2 PUSH20 0xFFFFFFFFFFFFFFFFFFFFFFFFFFFFFFFFFFFFFFFF MUL NOT AND SWAP1 DUP4 PUSH20 0xFFFFFFFFFFFFFFFFFFFFFFFFFFFFFFFFFFFFFFFF AND MUL OR SWAP1 SSTORE POP CALLER PUSH20 0xFFFFFFFFFFFFFFFFFFFFFFFFFFFFFFFFFFFFFFFF AND CALLVALUE PUSH32 0x24DB4F65D53D68DC208151FC0A00D767DA628055A922836A07EDEF3B5732F9A2 PUSH1 0x40 MLOAD PUSH1 0x40 MLOAD DUP1 SWAP2 SUB SWAP1 LOG3 JUMP JUMPDEST PUSH1 0x0 DUP1 DUP3 DUP2 SLOAD DUP2 LT PUSH2 0x87F JUMPI PUSH32 0x4E487B7100000000000000000000000000000000000000000000000000000000 PUSH1 0x0 MSTORE PUSH1 0x32 PUSH1 0x4 MSTORE PUSH1 0x24 PUSH1 0x0 REVERT JUMPDEST SWAP1 PUSH1 0x0 MSTORE PUSH1 0x20 PUSH1 0x0 KECCAK256 ADD PUSH1 0x0 SWAP1 SLOAD SWAP1 PUSH2 0x100 EXP SWAP1 DIV PUSH20 0xFFFFFFFFFFFFFFFFFFFFFFFFFFFFFFFFFFFFFFFF AND SWAP1 POP SWAP2 SWAP1 POP JUMP JUMPDEST PUSH1 0x0 DUP1 DUP1 SLOAD SWAP1 POP DUP3 PUSH1 0x0 DUP2 MLOAD DUP2 LT PUSH2 0x8F2 JUMPI PUSH32 0x4E487B7100000000000000000000000000000000000000000000000000000000 PUSH1 0x0 MSTORE PUSH1 0x32 PUSH1 0x4 MSTORE PUSH1 0x24 PUSH1 0x0 REVERT JUMPDEST PUSH1 0x20 MUL PUSH1 0x20 ADD ADD MLOAD PUSH2 0x904 SWAP2 SWAP1 PUSH2 0x12F6 JUMP JUMPDEST SWAP1 POP PUSH1 0x0 DUP1 DUP3 DUP2 SLOAD DUP2 LT PUSH2 0x941 JUMPI PUSH32 0x4E487B7100000000000000000000000000000000000000000000000000000000 PUSH1 0x0 MSTORE PUSH1 0x32 PUSH1 0x4 MSTORE PUSH1 0x24 PUSH1 0x0 REVERT JUMPDEST SWAP1 PUSH1 0x0 MSTORE PUSH1 0x20 PUSH1 0x0 KECCAK256 ADD PUSH1 0x0 SWAP1 SLOAD SWAP1 PUSH2 0x100 EXP SWAP1 DIV PUSH20 0xFFFFFFFFFFFFFFFFFFFFFFFFFFFFFFFFFFFFFFFF AND SWAP1 POP DUP1 PUSH1 0x1 PUSH1 0x0 PUSH2 0x100 EXP DUP2 SLOAD DUP2 PUSH20 0xFFFFFFFFFFFFFFFFFFFFFFFFFFFFFFFFFFFFFFFF MUL NOT AND SWAP1 DUP4 PUSH20 0xFFFFFFFFFFFFFFFFFFFFFFFFFFFFFFFFFFFFFFFF AND MUL OR SWAP1 SSTORE POP PUSH1 0x0 PUSH1 0x1 PUSH1 0x14 PUSH2 0x100 EXP DUP2 SLOAD DUP2 PUSH1 0xFF MUL NOT AND SWAP1 DUP4 PUSH1 0x1 DUP2 GT ISZERO PUSH2 0x9FB JUMPI PUSH32 0x4E487B7100000000000000000000000000000000000000000000000000000000 PUSH1 0x0 MSTORE PUSH1 0x21 PUSH1 0x4 MSTORE PUSH1 0x24 PUSH1 0x0 REVERT JUMPDEST MUL OR SWAP1 SSTORE POP PUSH1 0x0 PUSH8 0xFFFFFFFFFFFFFFFF DUP2 GT ISZERO PUSH2 0xA41 JUMPI PUSH32 0x4E487B7100000000000000000000000000000000000000000000000000000000 PUSH1 0x0 MSTORE PUSH1 0x41 PUSH1 0x4 MSTORE PUSH1 0x24 PUSH1 0x0 REVERT JUMPDEST PUSH1 0x40 MLOAD SWAP1 DUP1 DUP3 MSTORE DUP1 PUSH1 0x20 MUL PUSH1 0x20 ADD DUP3 ADD PUSH1 0x40 MSTORE DUP1 ISZERO PUSH2 0xA6F JUMPI DUP2 PUSH1 0x20 ADD PUSH1 0x20 DUP3 MUL DUP1 CALLDATASIZE DUP4 CALLDATACOPY DUP1 DUP3 ADD SWAP2 POP POP SWAP1 POP JUMPDEST POP PUSH1 0x0 SWAP1 DUP1 MLOAD SWAP1 PUSH1 0x20 ADD SWAP1 PUSH2 0xA85 SWAP3 SWAP2 SWAP1 PUSH2 0xB7A JUMP JUMPDEST POP TIMESTAMP PUSH1 0x2 DUP2 SWAP1 SSTORE POP PUSH1 0x0 DUP2 PUSH20 0xFFFFFFFFFFFFFFFFFFFFFFFFFFFFFFFFFFFFFFFF AND SELFBALANCE PUSH1 0x40 MLOAD PUSH2 0xAB3 SWAP1 PUSH2 0xFA2 JUMP JUMPDEST PUSH1 0x0 PUSH1 0x40 MLOAD DUP1 DUP4 SUB DUP2 DUP6 DUP8 GAS CALL SWAP3 POP POP POP RETURNDATASIZE DUP1 PUSH1 0x0 DUP2 EQ PUSH2 0xAF0 JUMPI PUSH1 0x40 MLOAD SWAP2 POP PUSH1 0x1F NOT PUSH1 0x3F RETURNDATASIZE ADD AND DUP3 ADD PUSH1 0x40 MSTORE RETURNDATASIZE DUP3 MSTORE RETURNDATASIZE PUSH1 0x0 PUSH1 0x20 DUP5 ADD RETURNDATACOPY PUSH2 0xAF5 JUMP JUMPDEST PUSH1 0x60 SWAP2 POP JUMPDEST POP POP SWAP1 POP DUP1 PUSH2 0xB30 JUMPI PUSH1 0x40 MLOAD PUSH32 0x3A47374900000000000000000000000000000000000000000000000000000000 DUP2 MSTORE PUSH1 0x4 ADD PUSH1 0x40 MLOAD DUP1 SWAP2 SUB SWAP1 REVERT JUMPDEST DUP2 PUSH20 0xFFFFFFFFFFFFFFFFFFFFFFFFFFFFFFFFFFFFFFFF AND PUSH32 0x601E33D170071D70BB66DD1D0EA49F34527D57CBF762EE37FD7C54F7FC12EF5A PUSH1 0x40 MLOAD PUSH1 0x40 MLOAD DUP1 SWAP2 SUB SWAP1 LOG2 POP POP POP POP POP JUMP JUMPDEST DUP3 DUP1 SLOAD DUP3 DUP3 SSTORE SWAP1 PUSH1 0x0 MSTORE PUSH1 0x20 PUSH1 0x0 KECCAK256 SWAP1 DUP2 ADD SWAP3 DUP3 ISZERO PUSH2 0xBF3 JUMPI SWAP2 PUSH1 0x20 MUL DUP3 ADD JUMPDEST DUP3 DUP2 GT ISZERO PUSH2 0xBF2 JUMPI DUP3 MLOAD DUP3 PUSH1 0x0 PUSH2 0x100 EXP DUP2 SLOAD DUP2 PUSH20 0xFFFFFFFFFFFFFFFFFFFFFFFFFFFFFFFFFFFFFFFF MUL NOT AND SWAP1 DUP4 PUSH20 0xFFFFFFFFFFFFFFFFFFFFFFFFFFFFFFFFFFFFFFFF AND MUL OR SWAP1 SSTORE POP SWAP2 PUSH1 0x20 ADD SWAP2 SWAP1 PUSH1 0x1 ADD SWAP1 PUSH2 0xB9A JUMP JUMPDEST JUMPDEST POP SWAP1 POP PUSH2 0xC00 SWAP2 SWAP1 PUSH2 0xC04 JUMP JUMPDEST POP SWAP1 JUMP JUMPDEST JUMPDEST DUP1 DUP3 GT ISZERO PUSH2 0xC1D JUMPI PUSH1 0x0 DUP2 PUSH1 0x0 SWAP1 SSTORE POP PUSH1 0x1 ADD PUSH2 0xC05 JUMP JUMPDEST POP SWAP1 JUMP JUMPDEST PUSH1 0x0 PUSH2 0xC34 PUSH2 0xC2F DUP5 PUSH2 0x1110 JUMP JUMPDEST PUSH2 0x10EB JUMP JUMPDEST SWAP1 POP DUP1 DUP4 DUP3 MSTORE PUSH1 0x20 DUP3 ADD SWAP1 POP DUP3 DUP6 PUSH1 0x20 DUP7 MUL DUP3 ADD GT ISZERO PUSH2 0xC53 JUMPI PUSH1 0x0 DUP1 REVERT JUMPDEST PUSH1 0x0 JUMPDEST DUP6 DUP2 LT ISZERO PUSH2 0xC83 JUMPI DUP2 PUSH2 0xC69 DUP9 DUP3 PUSH2 0xD69 JUMP JUMPDEST DUP5 MSTORE PUSH1 0x20 DUP5 ADD SWAP4 POP PUSH1 0x20 DUP4 ADD SWAP3 POP POP PUSH1 0x1 DUP2 ADD SWAP1 POP PUSH2 0xC56 JUMP JUMPDEST POP POP POP SWAP4 SWAP3 POP POP POP JUMP JUMPDEST PUSH1 0x0 PUSH2 0xCA0 PUSH2 0xC9B DUP5 PUSH2 0x113C JUMP JUMPDEST PUSH2 0x10EB JUMP JUMPDEST SWAP1 POP DUP3 DUP2 MSTORE PUSH1 0x20 DUP2 ADD DUP5 DUP5 DUP5 ADD GT ISZERO PUSH2 0xCB8 JUMPI PUSH1 0x0 DUP1 REVERT JUMPDEST PUSH2 0xCC3 DUP5 DUP3 DUP6 PUSH2 0x1283 JUMP JUMPDEST POP SWAP4 SWAP3 POP POP POP JUMP JUMPDEST PUSH1 0x0 DUP3 PUSH1 0x1F DUP4 ADD SLT PUSH2 0xCDC JUMPI PUSH1 0x0 DUP1 REVERT JUMPDEST DUP2 CALLDATALOAD PUSH2 0xCEC DUP5 DUP3 PUSH1 0x20 DUP7 ADD PUSH2 0xC21 JUMP JUMPDEST SWAP2 POP POP SWAP3 SWAP2 POP POP JUMP JUMPDEST PUSH1 0x0 DUP1 DUP4 PUSH1 0x1F DUP5 ADD SLT PUSH2 0xD07 JUMPI PUSH1 0x0 DUP1 REVERT JUMPDEST DUP3 CALLDATALOAD SWAP1 POP PUSH8 0xFFFFFFFFFFFFFFFF DUP2 GT ISZERO PUSH2 0xD20 JUMPI PUSH1 0x0 DUP1 REVERT JUMPDEST PUSH1 0x20 DUP4 ADD SWAP2 POP DUP4 PUSH1 0x1 DUP3 MUL DUP4 ADD GT ISZERO PUSH2 0xD38 JUMPI PUSH1 0x0 DUP1 REVERT JUMPDEST SWAP3 POP SWAP3 SWAP1 POP JUMP JUMPDEST PUSH1 0x0 DUP3 PUSH1 0x1F DUP4 ADD SLT PUSH2 0xD50 JUMPI PUSH1 0x0 DUP1 REVERT JUMPDEST DUP2 CALLDATALOAD PUSH2 0xD60 DUP5 DUP3 PUSH1 0x20 DUP7 ADD PUSH2 0xC8D JUMP JUMPDEST SWAP2 POP POP SWAP3 SWAP2 POP POP JUMP JUMPDEST PUSH1 0x0 DUP2 CALLDATALOAD SWAP1 POP PUSH2 0xD78 DUP2 PUSH2 0x140B JUMP JUMPDEST SWAP3 SWAP2 POP POP JUMP JUMPDEST PUSH1 0x0 DUP2 MLOAD SWAP1 POP PUSH2 0xD8D DUP2 PUSH2 0x140B JUMP JUMPDEST SWAP3 SWAP2 POP POP JUMP JUMPDEST PUSH1 0x0 DUP1 PUSH1 0x20 DUP4 DUP6 SUB SLT ISZERO PUSH2 0xDA6 JUMPI PUSH1 0x0 DUP1 REVERT JUMPDEST PUSH1 0x0 DUP4 ADD CALLDATALOAD PUSH8 0xFFFFFFFFFFFFFFFF DUP2 GT ISZERO PUSH2 0xDC0 JUMPI PUSH1 0x0 DUP1 REVERT JUMPDEST PUSH2 0xDCC DUP6 DUP3 DUP7 ADD PUSH2 0xCF5 JUMP JUMPDEST SWAP3 POP SWAP3 POP POP SWAP3 POP SWAP3 SWAP1 POP JUMP JUMPDEST PUSH1 0x0 PUSH1 0x20 DUP3 DUP5 SUB SLT ISZERO PUSH2 0xDEA JUMPI PUSH1 0x0 DUP1 REVERT JUMPDEST PUSH1 0x0 DUP3 ADD CALLDATALOAD PUSH8 0xFFFFFFFFFFFFFFFF DUP2 GT ISZERO PUSH2 0xE04 JUMPI PUSH1 0x0 DUP1 REVERT JUMPDEST PUSH2 0xE10 DUP5 DUP3 DUP6 ADD PUSH2 0xD3F JUMP JUMPDEST SWAP2 POP POP SWAP3 SWAP2 POP POP JUMP JUMPDEST PUSH1 0x0 PUSH1 0x20 DUP3 DUP5 SUB SLT ISZERO PUSH2 0xE2B JUMPI PUSH1 0x0 DUP1 REVERT JUMPDEST PUSH1 0x0 PUSH2 0xE39 DUP5 DUP3 DUP6 ADD PUSH2 0xD69 JUMP JUMPDEST SWAP2 POP POP SWAP3 SWAP2 POP POP JUMP JUMPDEST PUSH1 0x0 PUSH1 0x20 DUP3 DUP5 SUB SLT ISZERO PUSH2 0xE54 JUMPI PUSH1 0x0 DUP1 REVERT JUMPDEST PUSH1 0x0 PUSH2 0xE62 DUP5 DUP3 DUP6 ADD PUSH2 0xD7E JUMP JUMPDEST SWAP2 POP POP SWAP3 SWAP2 POP POP JUMP JUMPDEST PUSH1 0x0 DUP1 PUSH1 0x40 DUP4 DUP6 SUB SLT ISZERO PUSH2 0xE7E JUMPI PUSH1 0x0 DUP1 REVERT JUMPDEST PUSH1 0x0 PUSH2 0xE8C DUP6 DUP3 DUP7 ADD PUSH2 0xD69 JUMP JUMPDEST SWAP3 POP POP PUSH1 0x20 DUP4 ADD CALLDATALOAD PUSH8 0xFFFFFFFFFFFFFFFF DUP2 GT ISZERO PUSH2 0xEA9 JUMPI PUSH1 0x0 DUP1 REVERT JUMPDEST PUSH2 0xEB5 DUP6 DUP3 DUP7 ADD PUSH2 0xCCB JUMP JUMPDEST SWAP2 POP POP SWAP3 POP SWAP3 SWAP1 POP JUMP JUMPDEST PUSH2 0xEC8 DUP2 PUSH2 0x11C8 JUMP JUMPDEST DUP3 MSTORE POP POP JUMP JUMPDEST PUSH2 0xED7 DUP2 PUSH2 0x11DA JUMP JUMPDEST DUP3 MSTORE POP POP JUMP JUMPDEST PUSH2 0xEE6 DUP2 PUSH2 0x11E6 JUMP JUMPDEST DUP3 MSTORE POP POP JUMP JUMPDEST PUSH1 0x0 PUSH2 0xEF7 DUP3 PUSH2 0x116D JUMP JUMPDEST PUSH2 0xF01 DUP2 DUP6 PUSH2 0x1178 JUMP JUMPDEST SWAP4 POP PUSH2 0xF11 DUP2 DUP6 PUSH1 0x20 DUP7 ADD PUSH2 0x1292 JUMP JUMPDEST PUSH2 0xF1A DUP2 PUSH2 0x13E3 JUMP JUMPDEST DUP5 ADD SWAP2 POP POP SWAP3 SWAP2 POP POP JUMP JUMPDEST PUSH2 0xF2E DUP2 PUSH2 0x125F JUMP JUMPDEST DUP3 MSTORE POP POP JUMP JUMPDEST PUSH1 0x0 PUSH2 0xF41 PUSH1 0x0 DUP4 PUSH2 0x1189 JUMP JUMPDEST SWAP2 POP PUSH2 0xF4C DUP3 PUSH2 0x13F4 JUMP JUMPDEST PUSH1 0x0 DUP3 ADD SWAP1 POP SWAP2 SWAP1 POP JUMP JUMPDEST PUSH2 0xF60 DUP2 PUSH2 0x1203 JUMP JUMPDEST DUP3 MSTORE POP POP JUMP JUMPDEST PUSH2 0xF6F DUP2 PUSH2 0x1271 JUMP JUMPDEST DUP3 MSTORE POP POP JUMP JUMPDEST PUSH2 0xF7E DUP2 PUSH2 0x1231 JUMP JUMPDEST DUP3 MSTORE POP POP JUMP JUMPDEST PUSH2 0xF8D DUP2 PUSH2 0x123B JUMP JUMPDEST DUP3 MSTORE POP POP JUMP JUMPDEST PUSH2 0xF9C DUP2 PUSH2 0x124B JUMP JUMPDEST DUP3 MSTORE POP POP JUMP JUMPDEST PUSH1 0x0 PUSH2 0xFAD DUP3 PUSH2 0xF34 JUMP JUMPDEST SWAP2 POP DUP2 SWAP1 POP SWAP2 SWAP1 POP JUMP JUMPDEST PUSH1 0x0 PUSH1 0x20 DUP3 ADD SWAP1 POP PUSH2 0xFCC PUSH1 0x0 DUP4 ADD DUP5 PUSH2 0xEBF JUMP JUMPDEST SWAP3 SWAP2 POP POP JUMP JUMPDEST PUSH1 0x0 PUSH1 0x40 DUP3 ADD SWAP1 POP PUSH2 0xFE7 PUSH1 0x0 DUP4 ADD DUP6 PUSH2 0xEBF JUMP JUMPDEST PUSH2 0xFF4 PUSH1 0x20 DUP4 ADD DUP5 PUSH2 0xEBF JUMP JUMPDEST SWAP4 SWAP3 POP POP POP JUMP JUMPDEST PUSH1 0x0 PUSH1 0x40 DUP3 ADD SWAP1 POP PUSH2 0x1010 PUSH1 0x0 DUP4 ADD DUP6 PUSH2 0xECE JUMP JUMPDEST DUP2 DUP2 SUB PUSH1 0x20 DUP4 ADD MSTORE PUSH2 0x1022 DUP2 DUP5 PUSH2 0xEEC JUMP JUMPDEST SWAP1 POP SWAP4 SWAP3 POP POP POP JUMP JUMPDEST PUSH1 0x0 PUSH1 0xA0 DUP3 ADD SWAP1 POP PUSH2 0x1040 PUSH1 0x0 DUP4 ADD DUP9 PUSH2 0xEDD JUMP JUMPDEST PUSH2 0x104D PUSH1 0x20 DUP4 ADD DUP8 PUSH2 0xF93 JUMP JUMPDEST PUSH2 0x105A PUSH1 0x40 DUP4 ADD DUP7 PUSH2 0xF57 JUMP JUMPDEST PUSH2 0x1067 PUSH1 0x60 DUP4 ADD DUP6 PUSH2 0xF84 JUMP JUMPDEST PUSH2 0x1074 PUSH1 0x80 DUP4 ADD DUP5 PUSH2 0xF66 JUMP JUMPDEST SWAP7 SWAP6 POP POP POP POP POP POP JUMP JUMPDEST PUSH1 0x0 PUSH1 0x20 DUP3 ADD SWAP1 POP PUSH2 0x1093 PUSH1 0x0 DUP4 ADD DUP5 PUSH2 0xF25 JUMP JUMPDEST SWAP3 SWAP2 POP POP JUMP JUMPDEST PUSH1 0x0 PUSH1 0x20 DUP3 ADD SWAP1 POP PUSH2 0x10AE PUSH1 0x0 DUP4 ADD DUP5 PUSH2 0xF75 JUMP JUMPDEST SWAP3 SWAP2 POP POP JUMP JUMPDEST PUSH1 0x0 PUSH1 0x60 DUP3 ADD SWAP1 POP PUSH2 0x10C9 PUSH1 0x0 DUP4 ADD DUP7 PUSH2 0xF75 JUMP JUMPDEST PUSH2 0x10D6 PUSH1 0x20 DUP4 ADD DUP6 PUSH2 0xF75 JUMP JUMPDEST PUSH2 0x10E3 PUSH1 0x40 DUP4 ADD DUP5 PUSH2 0xF75 JUMP JUMPDEST SWAP5 SWAP4 POP POP POP POP JUMP JUMPDEST PUSH1 0x0 PUSH2 0x10F5 PUSH2 0x1106 JUMP JUMPDEST SWAP1 POP PUSH2 0x1101 DUP3 DUP3 PUSH2 0x12C5 JUMP JUMPDEST SWAP2 SWAP1 POP JUMP JUMPDEST PUSH1 0x0 PUSH1 0x40 MLOAD SWAP1 POP SWAP1 JUMP JUMPDEST PUSH1 0x0 PUSH8 0xFFFFFFFFFFFFFFFF DUP3 GT ISZERO PUSH2 0x112B JUMPI PUSH2 0x112A PUSH2 0x13B4 JUMP JUMPDEST JUMPDEST PUSH1 0x20 DUP3 MUL SWAP1 POP PUSH1 0x20 DUP2 ADD SWAP1 POP SWAP2 SWAP1 POP JUMP JUMPDEST PUSH1 0x0 PUSH8 0xFFFFFFFFFFFFFFFF DUP3 GT ISZERO PUSH2 0x1157 JUMPI PUSH2 0x1156 PUSH2 0x13B4 JUMP JUMPDEST JUMPDEST PUSH2 0x1160 DUP3 PUSH2 0x13E3 JUMP JUMPDEST SWAP1 POP PUSH1 0x20 DUP2 ADD SWAP1 POP SWAP2 SWAP1 POP JUMP JUMPDEST PUSH1 0x0 DUP2 MLOAD SWAP1 POP SWAP2 SWAP1 POP JUMP JUMPDEST PUSH1 0x0 DUP3 DUP3 MSTORE PUSH1 0x20 DUP3 ADD SWAP1 POP SWAP3 SWAP2 POP POP JUMP JUMPDEST PUSH1 0x0 DUP2 SWAP1 POP SWAP3 SWAP2 POP POP JUMP JUMPDEST PUSH1 0x0 PUSH2 0x119F DUP3 PUSH2 0x1231 JUMP JUMPDEST SWAP2 POP PUSH2 0x11AA DUP4 PUSH2 0x1231 JUMP JUMPDEST SWAP3 POP DUP3 DUP3 LT ISZERO PUSH2 0x11BD JUMPI PUSH2 0x11BC PUSH2 0x1327 JUMP JUMPDEST JUMPDEST DUP3 DUP3 SUB SWAP1 POP SWAP3 SWAP2 POP POP JUMP JUMPDEST PUSH1 0x0 PUSH2 0x11D3 DUP3 PUSH2 0x1211 JUMP JUMPDEST SWAP1 POP SWAP2 SWAP1 POP JUMP JUMPDEST PUSH1 0x0 DUP2 ISZERO ISZERO SWAP1 POP SWAP2 SWAP1 POP JUMP JUMPDEST PUSH1 0x0 DUP2 SWAP1 POP SWAP2 SWAP1 POP JUMP JUMPDEST PUSH1 0x0 DUP2 SWAP1 POP PUSH2 0x11FE DUP3 PUSH2 0x13F7 JUMP JUMPDEST SWAP2 SWAP1 POP JUMP JUMPDEST PUSH1 0x0 PUSH2 0xFFFF DUP3 AND SWAP1 POP SWAP2 SWAP1 POP JUMP JUMPDEST PUSH1 0x0 PUSH20 0xFFFFFFFFFFFFFFFFFFFFFFFFFFFFFFFFFFFFFFFF DUP3 AND SWAP1 POP SWAP2 SWAP1 POP JUMP JUMPDEST PUSH1 0x0 DUP2 SWAP1 POP SWAP2 SWAP1 POP JUMP JUMPDEST PUSH1 0x0 PUSH4 0xFFFFFFFF DUP3 AND SWAP1 POP SWAP2 SWAP1 POP JUMP JUMPDEST PUSH1 0x0 PUSH8 0xFFFFFFFFFFFFFFFF DUP3 AND SWAP1 POP SWAP2 SWAP1 POP JUMP JUMPDEST PUSH1 0x0 PUSH2 0x126A DUP3 PUSH2 0x11F0 JUMP JUMPDEST SWAP1 POP SWAP2 SWAP1 POP JUMP JUMPDEST PUSH1 0x0 PUSH2 0x127C DUP3 PUSH2 0x1203 JUMP JUMPDEST SWAP1 POP SWAP2 SWAP1 POP JUMP JUMPDEST DUP3 DUP2 DUP4 CALLDATACOPY PUSH1 0x0 DUP4 DUP4 ADD MSTORE POP POP POP JUMP JUMPDEST PUSH1 0x0 JUMPDEST DUP4 DUP2 LT ISZERO PUSH2 0x12B0 JUMPI DUP1 DUP3 ADD MLOAD DUP2 DUP5 ADD MSTORE PUSH1 0x20 DUP2 ADD SWAP1 POP PUSH2 0x1295 JUMP JUMPDEST DUP4 DUP2 GT ISZERO PUSH2 0x12BF JUMPI PUSH1 0x0 DUP5 DUP5 ADD MSTORE JUMPDEST POP POP POP POP JUMP JUMPDEST PUSH2 0x12CE DUP3 PUSH2 0x13E3 JUMP JUMPDEST DUP2 ADD DUP2 DUP2 LT PUSH8 0xFFFFFFFFFFFFFFFF DUP3 GT OR ISZERO PUSH2 0x12ED JUMPI PUSH2 0x12EC PUSH2 0x13B4 JUMP JUMPDEST JUMPDEST DUP1 PUSH1 0x40 MSTORE POP POP POP JUMP JUMPDEST PUSH1 0x0 PUSH2 0x1301 DUP3 PUSH2 0x1231 JUMP JUMPDEST SWAP2 POP PUSH2 0x130C DUP4 PUSH2 0x1231 JUMP JUMPDEST SWAP3 POP DUP3 PUSH2 0x131C JUMPI PUSH2 0x131B PUSH2 0x1356 JUMP JUMPDEST JUMPDEST DUP3 DUP3 MOD SWAP1 POP SWAP3 SWAP2 POP POP JUMP JUMPDEST PUSH32 0x4E487B7100000000000000000000000000000000000000000000000000000000 PUSH1 0x0 MSTORE PUSH1 0x11 PUSH1 0x4 MSTORE PUSH1 0x24 PUSH1 0x0 REVERT JUMPDEST PUSH32 0x4E487B7100000000000000000000000000000000000000000000000000000000 PUSH1 0x0 MSTORE PUSH1 0x12 PUSH1 0x4 MSTORE PUSH1 0x24 PUSH1 0x0 REVERT JUMPDEST PUSH32 0x4E487B7100000000000000000000000000000000000000000000000000000000 PUSH1 0x0 MSTORE PUSH1 0x21 PUSH1 0x4 MSTORE PUSH1 0x24 PUSH1 0x0 REVERT JUMPDEST PUSH32 0x4E487B7100000000000000000000000000000000000000000000000000000000 PUSH1 0x0 MSTORE PUSH1 0x41 PUSH1 0x4 MSTORE PUSH1 0x24 PUSH1 0x0 REVERT JUMPDEST PUSH1 0x0 PUSH1 0x1F NOT PUSH1 0x1F DUP4 ADD AND SWAP1 POP SWAP2 SWAP1 POP JUMP JUMPDEST POP JUMP JUMPDEST PUSH1 0x2 DUP2 LT PUSH2 0x1408 JUMPI PUSH2 0x1407 PUSH2 0x1385 JUMP JUMPDEST JUMPDEST POP JUMP JUMPDEST PUSH2 0x1414 DUP2 PUSH2 0x1231 JUMP JUMPDEST DUP2 EQ PUSH2 0x141F JUMPI PUSH1 0x0 DUP1 REVERT JUMPDEST POP JUMP INVALID LOG2 PUSH5 0x6970667358 0x22 SLT KECCAK256 0xC2 0xD6 ADDMOD 0xCA SSTORE BYTE 0x22 0xDD 0x4C PUSH32 0x7607841237518389CD2657FDC789CB984E3012BFAA7A64736F6C634300080400 CALLER "
        },
        "gasEstimates": {
          "creation": {
            "codeDepositCost": "1041600",
            "executionCost": "infinite",
            "totalCost": "infinite"
          },
          "external": {
            "checkUpkeep(bytes)": "infinite",
            "enterLottery()": "infinite",
            "getEntranceFee()": "infinite",
            "getNumWords()": "365",
            "getPlayer(uint256)": "2455",
            "getRaffleState()": "1341",
            "getRecentWinner()": "1222",
            "performUpkeep(bytes)": "infinite",
            "rawFulfillRandomWords(uint256,uint256[])": "infinite"
          },
          "internal": {
            "fulfillRandomWords(uint256,uint256[] memory)": "infinite"
          }
        },
        "methodIdentifiers": {
          "checkUpkeep(bytes)": "6e04ff0d",
          "enterLottery()": "c1af5785",
          "getEntranceFee()": "09bc33a7",
          "getNumWords()": "53a2c19a",
          "getPlayer(uint256)": "e55ae4e8",
          "getRaffleState()": "115cbaf5",
          "getRecentWinner()": "473f1ddc",
          "performUpkeep(bytes)": "4585e33b",
          "rawFulfillRandomWords(uint256,uint256[])": "1fe543e3"
        }
      },
      "storageLayout": {
        "storage": [
          {
            "astId": 196,
            "contract": "contracts/lottery.sol:Lottery",
            "label": "s_players",
            "offset": 0,
            "slot": "0",
            "type": "t_array(t_address_payable)dyn_storage"
          },
          {
            "astId": 213,
            "contract": "contracts/lottery.sol:Lottery",
            "label": "s_recentWinner",
            "offset": 0,
            "slot": "1",
            "type": "t_address"
          },
          {
            "astId": 216,
            "contract": "contracts/lottery.sol:Lottery",
            "label": "s_raffleState",
            "offset": 20,
            "slot": "1",
            "type": "t_enum(RaffleState)191"
          },
          {
            "astId": 218,
            "contract": "contracts/lottery.sol:Lottery",
            "label": "s_lastTimeStamp",
            "offset": 0,
            "slot": "2",
            "type": "t_uint256"
          }
        ],
        "types": {
          "t_address": {
            "encoding": "inplace",
            "label": "address",
            "numberOfBytes": "20"
          },
          "t_address_payable": {
            "encoding": "inplace",
            "label": "address payable",
            "numberOfBytes": "20"
          },
          "t_array(t_address_payable)dyn_storage": {
            "base": "t_address_payable",
            "encoding": "dynamic_array",
            "label": "address payable[]",
            "numberOfBytes": "32"
          },
          "t_enum(RaffleState)191": {
            "encoding": "inplace",
            "label": "enum Lottery.RaffleState",
            "numberOfBytes": "1"
          },
          "t_uint256": {
            "encoding": "inplace",
            "label": "uint256",
            "numberOfBytes": "32"
          }
        }
      },
      "userdoc": {
        "kind": "user",
        "methods": {},
        "version": 1
      }
    }
  }
}