{
  "_format": "hh-sol-artifact-1",
  "contractName": "lottery",
  "sourceName": "contracts/lottery.sol",
  "abi": [
    {
      "inputs": [
        {
          "internalType": "address",
          "name": "vrfCoordinatorV2",
          "type": "address"
        },
        {
          "internalType": "uint256",
          "name": "_entranceFee",
          "type": "uint256"
        }
      ],
      "stateMutability": "nonpayable",
      "type": "constructor"
    },
    {
      "inputs": [
        {
          "internalType": "address",
          "name": "have",
          "type": "address"
        },
        {
          "internalType": "address",
          "name": "want",
          "type": "address"
        }
      ],
      "name": "OnlyCoordinatorCanFulfill",
      "type": "error"
    },
    {
      "inputs": [],
      "name": "sendMoreEth",
      "type": "error"
    },
    {
      "anonymous": false,
      "inputs": [
        {
          "indexed": true,
          "internalType": "uint256",
          "name": "_amount",
          "type": "uint256"
        },
        {
          "indexed": true,
          "internalType": "address",
          "name": "_player",
          "type": "address"
        }
      ],
      "name": "newPlayer",
      "type": "event"
    },
    {
      "inputs": [],
      "name": "createRandomWinner",
      "outputs": [],
      "stateMutability": "nonpayable",
      "type": "function"
    },
    {
      "inputs": [],
      "name": "enterLottery",
      "outputs": [],
      "stateMutability": "payable",
      "type": "function"
    },
    {
      "inputs": [],
      "name": "getEntranceFee",
      "outputs": [
        {
          "internalType": "uint256",
          "name": "",
          "type": "uint256"
        }
      ],
      "stateMutability": "view",
      "type": "function"
    },
    {
      "inputs": [
        {
          "internalType": "uint256",
          "name": "index",
          "type": "uint256"
        }
      ],
      "name": "getPlayer",
      "outputs": [
        {
          "internalType": "address",
          "name": "",
          "type": "address"
        }
      ],
      "stateMutability": "view",
      "type": "function"
    },
    {
      "inputs": [
        {
          "internalType": "uint256",
          "name": "requestId",
          "type": "uint256"
        },
        {
          "internalType": "uint256[]",
          "name": "randomWords",
          "type": "uint256[]"
        }
      ],
      "name": "rawFulfillRandomWords",
      "outputs": [],
      "stateMutability": "nonpayable",
      "type": "function"
    }
  ],
  "bytecode": "0x60c060405234801561001057600080fd5b506040516107cf3803806107cf833981810160405281019061003291906100a4565b818073ffffffffffffffffffffffffffffffffffffffff1660808173ffffffffffffffffffffffffffffffffffffffff1660601b81525050508060a08181525050505061014a565b6000815190506100898161011c565b92915050565b60008151905061009e81610133565b92915050565b600080604083850312156100b757600080fd5b60006100c58582860161007a565b92505060206100d68582860161008f565b9150509250929050565b60006100eb826100f2565b9050919050565b600073ffffffffffffffffffffffffffffffffffffffff82169050919050565b6000819050919050565b610125816100e0565b811461013057600080fd5b50565b61013c81610112565b811461014757600080fd5b50565b60805160601c60a05161064f6101806000396000818161010501526101ed01526000818161012d0152610181015261064f6000f3fe60806040526004361061004a5760003560e01c806309bc33a71461004f578063188649dd1461007a5780631fe543e314610091578063c1af5785146100ba578063e55ae4e8146100c4575b600080fd5b34801561005b57600080fd5b50610064610101565b60405161007191906104e9565b60405180910390f35b34801561008657600080fd5b5061008f610129565b005b34801561009d57600080fd5b506100b860048036038101906100b39190610433565b61012b565b005b6100c26101eb565b005b3480156100d057600080fd5b506100eb60048036038101906100e6919061040a565b6102ee565b6040516100f891906104a5565b60405180910390f35b60007f0000000000000000000000000000000000000000000000000000000000000000905090565b565b7f000000000000000000000000000000000000000000000000000000000000000073ffffffffffffffffffffffffffffffffffffffff163373ffffffffffffffffffffffffffffffffffffffff16146101dd57337f00000000000000000000000000000000000000000000000000000000000000006040517f1cf993f40000000000000000000000000000000000000000000000000000000081526004016101d49291906104c0565b60405180910390fd5b6101e7828261035b565b5050565b7f0000000000000000000000000000000000000000000000000000000000000000341015610245576040517fda88e3ab00000000000000000000000000000000000000000000000000000000815260040160405180910390fd5b6000339080600181540180825580915050600190039060005260206000200160009091909190916101000a81548173ffffffffffffffffffffffffffffffffffffffff021916908373ffffffffffffffffffffffffffffffffffffffff1602179055503373ffffffffffffffffffffffffffffffffffffffff16347f24db4f65d53d68dc208151fc0a00d767da628055a922836a07edef3b5732f9a260405160405180910390a3565b6000808281548110610329577f4e487b7100000000000000000000000000000000000000000000000000000000600052603260045260246000fd5b9060005260206000200160009054906101000a900473ffffffffffffffffffffffffffffffffffffffff169050919050565b5050565b600061037261036d84610529565b610504565b9050808382526020820190508285602086028201111561039157600080fd5b60005b858110156103c157816103a788826103f5565b845260208401935060208301925050600181019050610394565b5050509392505050565b600082601f8301126103dc57600080fd5b81356103ec84826020860161035f565b91505092915050565b60008135905061040481610602565b92915050565b60006020828403121561041c57600080fd5b600061042a848285016103f5565b91505092915050565b6000806040838503121561044657600080fd5b6000610454858286016103f5565b925050602083013567ffffffffffffffff81111561047157600080fd5b61047d858286016103cb565b9150509250929050565b61049081610555565b82525050565b61049f81610587565b82525050565b60006020820190506104ba6000830184610487565b92915050565b60006040820190506104d56000830185610487565b6104e26020830184610487565b9392505050565b60006020820190506104fe6000830184610496565b92915050565b600061050e61051f565b905061051a8282610591565b919050565b6000604051905090565b600067ffffffffffffffff821115610544576105436105c2565b5b602082029050602081019050919050565b600061056082610567565b9050919050565b600073ffffffffffffffffffffffffffffffffffffffff82169050919050565b6000819050919050565b61059a826105f1565b810181811067ffffffffffffffff821117156105b9576105b86105c2565b5b80604052505050565b7f4e487b7100000000000000000000000000000000000000000000000000000000600052604160045260246000fd5b6000601f19601f8301169050919050565b61060b81610587565b811461061657600080fd5b5056fea2646970667358221220f17e48a56b71fa77c85667f46921bf64fc5983e02b405e3b5bbd0db40c9a44f464736f6c63430008040033",
  "linkReferences": {},
  "deployedLinkReferences": {}
}