{
  "_format": "hh-sol-artifact-1",
  "contractName": "Lottery",
  "sourceName": "contracts/lottery.sol",
  "abi": [
    {
      "inputs": [
        {
          "internalType": "address",
          "name": "vrfCoordinatorV2",
          "type": "address"
        },
        {
          "internalType": "uint256",
          "name": "_entranceFee",
          "type": "uint256"
        },
        {
          "internalType": "bytes32",
          "name": "gaslane",
          "type": "bytes32"
        },
        {
          "internalType": "uint64",
          "name": "subscriptionId",
          "type": "uint64"
        },
        {
          "internalType": "uint32",
          "name": "callbackGasLimit",
          "type": "uint32"
        },
        {
          "internalType": "uint256",
          "name": "interval",
          "type": "uint256"
        }
      ],
      "stateMutability": "nonpayable",
      "type": "constructor"
    },
    {
      "inputs": [],
      "name": "Lottery__MoneyNotSent",
      "type": "error"
    },
    {
      "inputs": [],
      "name": "Lottery__NotAvailable",
      "type": "error"
    },
    {
      "inputs": [
        {
          "internalType": "uint256",
          "name": "balance",
          "type": "uint256"
        },
        {
          "internalType": "uint256",
          "name": "numPlayers",
          "type": "uint256"
        },
        {
          "internalType": "uint256",
          "name": "raffleState",
          "type": "uint256"
        }
      ],
      "name": "Lottery__UpkeepNotNeeded",
      "type": "error"
    },
    {
      "inputs": [],
      "name": "Lottery__sendMoreEth",
      "type": "error"
    },
    {
      "inputs": [
        {
          "internalType": "address",
          "name": "have",
          "type": "address"
        },
        {
          "internalType": "address",
          "name": "want",
          "type": "address"
        }
      ],
      "name": "OnlyCoordinatorCanFulfill",
      "type": "error"
    },
    {
      "anonymous": false,
      "inputs": [
        {
          "indexed": true,
          "internalType": "address",
          "name": "winnners",
          "type": "address"
        }
      ],
      "name": "PastWinners",
      "type": "event"
    },
    {
      "anonymous": false,
      "inputs": [
        {
          "indexed": true,
          "internalType": "uint256",
          "name": "_amount",
          "type": "uint256"
        },
        {
          "indexed": true,
          "internalType": "address",
          "name": "_player",
          "type": "address"
        }
      ],
      "name": "newPlayer",
      "type": "event"
    },
    {
      "anonymous": false,
      "inputs": [
        {
          "indexed": true,
          "internalType": "uint256",
          "name": "requestId",
          "type": "uint256"
        }
      ],
      "name": "requestRandomWinner",
      "type": "event"
    },
    {
      "inputs": [
        {
          "internalType": "bytes",
          "name": "",
          "type": "bytes"
        }
      ],
      "name": "checkUpkeep",
      "outputs": [
        {
          "internalType": "bool",
          "name": "upkeepNeeded",
          "type": "bool"
        },
        {
          "internalType": "bytes",
          "name": "",
          "type": "bytes"
        }
      ],
      "stateMutability": "nonpayable",
      "type": "function"
    },
    {
      "inputs": [],
      "name": "enterLottery",
      "outputs": [],
      "stateMutability": "payable",
      "type": "function"
    },
    {
      "inputs": [],
      "name": "getEntranceFee",
      "outputs": [
        {
          "internalType": "uint256",
          "name": "",
          "type": "uint256"
        }
      ],
      "stateMutability": "view",
      "type": "function"
    },
    {
      "inputs": [],
      "name": "getNumWords",
      "outputs": [
        {
          "internalType": "uint256",
          "name": "",
          "type": "uint256"
        }
      ],
      "stateMutability": "pure",
      "type": "function"
    },
    {
      "inputs": [
        {
          "internalType": "uint256",
          "name": "index",
          "type": "uint256"
        }
      ],
      "name": "getPlayer",
      "outputs": [
        {
          "internalType": "address",
          "name": "",
          "type": "address"
        }
      ],
      "stateMutability": "view",
      "type": "function"
    },
    {
      "inputs": [],
      "name": "getRaffleState",
      "outputs": [
        {
          "internalType": "enum Lottery.RaffleState",
          "name": "",
          "type": "uint8"
        }
      ],
      "stateMutability": "view",
      "type": "function"
    },
    {
      "inputs": [],
      "name": "getRecentWinner",
      "outputs": [
        {
          "internalType": "address",
          "name": "",
          "type": "address"
        }
      ],
      "stateMutability": "view",
      "type": "function"
    },
    {
      "inputs": [
        {
          "internalType": "bytes",
          "name": "",
          "type": "bytes"
        }
      ],
      "name": "performUpkeep",
      "outputs": [],
      "stateMutability": "nonpayable",
      "type": "function"
    },
    {
      "inputs": [
        {
          "internalType": "uint256",
          "name": "requestId",
          "type": "uint256"
        },
        {
          "internalType": "uint256[]",
          "name": "randomWords",
          "type": "uint256[]"
        }
      ],
      "name": "rawFulfillRandomWords",
      "outputs": [],
      "stateMutability": "nonpayable",
      "type": "function"
    }
  ],
  "bytecode": "0x6101606040523480156200001257600080fd5b5060405162001822380380620018228339818101604052810190620000389190620001d1565b858073ffffffffffffffffffffffffffffffffffffffff1660808173ffffffffffffffffffffffffffffffffffffffff1660601b81525050508460a081815250508573ffffffffffffffffffffffffffffffffffffffff1660c08173ffffffffffffffffffffffffffffffffffffffff1660601b815250508360e081815250508267ffffffffffffffff166101008167ffffffffffffffff1660c01b815250508163ffffffff166101208163ffffffff1660e01b815250506000600160146101000a81548160ff021916908360018111156200013d577f4e487b7100000000000000000000000000000000000000000000000000000000600052602160045260246000fd5b02179055504260028190555080610140818152505050505050505062000355565b6000815190506200016f81620002d3565b92915050565b6000815190506200018681620002ed565b92915050565b6000815190506200019d8162000307565b92915050565b600081519050620001b48162000321565b92915050565b600081519050620001cb816200033b565b92915050565b60008060008060008060c08789031215620001eb57600080fd5b6000620001fb89828a016200015e565b96505060206200020e89828a016200018c565b95505060406200022189828a0162000175565b94505060606200023489828a01620001ba565b93505060806200024789828a01620001a3565b92505060a06200025a89828a016200018c565b9150509295509295509295565b6000620002748262000285565b9050919050565b6000819050919050565b600073ffffffffffffffffffffffffffffffffffffffff82169050919050565b6000819050919050565b600063ffffffff82169050919050565b600067ffffffffffffffff82169050919050565b620002de8162000267565b8114620002ea57600080fd5b50565b620002f8816200027b565b81146200030457600080fd5b50565b6200031281620002a5565b81146200031e57600080fd5b50565b6200032c81620002af565b81146200033857600080fd5b50565b6200034681620002bf565b81146200035257600080fd5b50565b60805160601c60a05160c05160601c60e0516101005160c01c6101205160e01c61014051611458620003ca600039600061061e015260006104900152600061046d0152600061044c01526000610410015260008181610212015261068a01526000818161024f01526102a301526114586000f3fe6080604052600436106100865760003560e01c8063473f1ddc11610059578063473f1ddc1461013357806353a2c19a1461015e5780636e04ff0d14610189578063c1af5785146101c7578063e55ae4e8146101d157610086565b806309bc33a71461008b578063115cbaf5146100b65780631fe543e3146100e15780634585e33b1461010a575b600080fd5b34801561009757600080fd5b506100a061020e565b6040516100ad9190611099565b60405180910390f35b3480156100c257600080fd5b506100cb610236565b6040516100d8919061107e565b60405180910390f35b3480156100ed57600080fd5b5061010860048036038101906101039190610e6b565b61024d565b005b34801561011657600080fd5b50610131600480360381019061012c9190610d93565b61030d565b005b34801561013f57600080fd5b50610148610558565b6040516101559190610fb7565b60405180910390f35b34801561016a57600080fd5b50610173610582565b6040516101809190611099565b60405180910390f35b34801561019557600080fd5b506101b060048036038101906101ab9190610dd8565b61058f565b6040516101be929190610ffb565b60405180910390f35b6101cf610688565b005b3480156101dd57600080fd5b506101f860048036038101906101f39190610e19565b610844565b6040516102059190610fb7565b60405180910390f35b60007f0000000000000000000000000000000000000000000000000000000000000000905090565b6000600160149054906101000a900460ff16905090565b7f000000000000000000000000000000000000000000000000000000000000000073ffffffffffffffffffffffffffffffffffffffff163373ffffffffffffffffffffffffffffffffffffffff16146102ff57337f00000000000000000000000000000000000000000000000000000000000000006040517f1cf993f40000000000000000000000000000000000000000000000000000000081526004016102f6929190610fd2565b60405180910390fd5b61030982826108b1565b5050565b60006103276040518060200160405280600081525061058f565b509050806103bc5747600080549050600160149054906101000a900460ff16600181111561037e577f4e487b7100000000000000000000000000000000000000000000000000000000600052602160045260246000fd5b6040517f6e195f250000000000000000000000000000000000000000000000000000000081526004016103b3939291906110b4565b60405180910390fd5b60018060146101000a81548160ff02191690836001811115610407577f4e487b7100000000000000000000000000000000000000000000000000000000600052602160045260246000fd5b021790555060007f000000000000000000000000000000000000000000000000000000000000000073ffffffffffffffffffffffffffffffffffffffff16635d3b1d307f00000000000000000000000000000000000000000000000000000000000000007f000000000000000000000000000000000000000000000000000000000000000060037f000000000000000000000000000000000000000000000000000000000000000060016040518663ffffffff1660e01b81526004016104d195949392919061102b565b602060405180830381600087803b1580156104eb57600080fd5b505af11580156104ff573d6000803e3d6000fd5b505050506040513d601f19601f820116820180604052508101906105239190610e42565b9050807f5e42a34530a308d44a84f0c245afbe71f18da82562b8d6ce22888f2ba8d3a28e60405160405180910390a250505050565b6000600160009054906101000a900473ffffffffffffffffffffffffffffffffffffffff16905090565b6000600161ffff16905090565b600060606000600160149054906101000a900460ff1660018111156105dd577f4e487b7100000000000000000000000000000000000000000000000000000000600052602160045260246000fd5b60006001811115610617577f4e487b7100000000000000000000000000000000000000000000000000000000600052602160045260246000fd5b14905060007f00000000000000000000000000000000000000000000000000000000000000006002544261064b9190611194565b1190506000806000805490501190506000804711905083801561066b5750825b80156106745750815b801561067d5750805b955050505050915091565b7f00000000000000000000000000000000000000000000000000000000000000003410156106e2576040517f84da4c9d00000000000000000000000000000000000000000000000000000000815260040160405180910390fd5b6000600181111561071c577f4e487b7100000000000000000000000000000000000000000000000000000000600052602160045260246000fd5b600160149054906101000a900460ff166001811115610764577f4e487b7100000000000000000000000000000000000000000000000000000000600052602160045260246000fd5b1461079b576040517f3c415f9900000000000000000000000000000000000000000000000000000000815260040160405180910390fd5b6000339080600181540180825580915050600190039060005260206000200160009091909190916101000a81548173ffffffffffffffffffffffffffffffffffffffff021916908373ffffffffffffffffffffffffffffffffffffffff1602179055503373ffffffffffffffffffffffffffffffffffffffff16347f24db4f65d53d68dc208151fc0a00d767da628055a922836a07edef3b5732f9a260405160405180910390a3565b600080828154811061087f577f4e487b7100000000000000000000000000000000000000000000000000000000600052603260045260246000fd5b9060005260206000200160009054906101000a900473ffffffffffffffffffffffffffffffffffffffff169050919050565b60008080549050826000815181106108f2577f4e487b7100000000000000000000000000000000000000000000000000000000600052603260045260246000fd5b602002602001015161090491906112f6565b90506000808281548110610941577f4e487b7100000000000000000000000000000000000000000000000000000000600052603260045260246000fd5b9060005260206000200160009054906101000a900473ffffffffffffffffffffffffffffffffffffffff16905080600160006101000a81548173ffffffffffffffffffffffffffffffffffffffff021916908373ffffffffffffffffffffffffffffffffffffffff1602179055506000600160146101000a81548160ff021916908360018111156109fb577f4e487b7100000000000000000000000000000000000000000000000000000000600052602160045260246000fd5b0217905550600067ffffffffffffffff811115610a41577f4e487b7100000000000000000000000000000000000000000000000000000000600052604160045260246000fd5b604051908082528060200260200182016040528015610a6f5781602001602082028036833780820191505090505b5060009080519060200190610a85929190610b7a565b504260028190555060008173ffffffffffffffffffffffffffffffffffffffff1647604051610ab390610fa2565b60006040518083038185875af1925050503d8060008114610af0576040519150601f19603f3d011682016040523d82523d6000602084013e610af5565b606091505b5050905080610b30576040517f3a47374900000000000000000000000000000000000000000000000000000000815260040160405180910390fd5b8173ffffffffffffffffffffffffffffffffffffffff167f601e33d170071d70bb66dd1d0ea49f34527d57cbf762ee37fd7c54f7fc12ef5a60405160405180910390a25050505050565b828054828255906000526020600020908101928215610bf3579160200282015b82811115610bf25782518260006101000a81548173ffffffffffffffffffffffffffffffffffffffff021916908373ffffffffffffffffffffffffffffffffffffffff16021790555091602001919060010190610b9a565b5b509050610c009190610c04565b5090565b5b80821115610c1d576000816000905550600101610c05565b5090565b6000610c34610c2f84611110565b6110eb565b90508083825260208201905082856020860282011115610c5357600080fd5b60005b85811015610c835781610c698882610d69565b845260208401935060208301925050600181019050610c56565b5050509392505050565b6000610ca0610c9b8461113c565b6110eb565b905082815260208101848484011115610cb857600080fd5b610cc3848285611283565b509392505050565b600082601f830112610cdc57600080fd5b8135610cec848260208601610c21565b91505092915050565b60008083601f840112610d0757600080fd5b8235905067ffffffffffffffff811115610d2057600080fd5b602083019150836001820283011115610d3857600080fd5b9250929050565b600082601f830112610d5057600080fd5b8135610d60848260208601610c8d565b91505092915050565b600081359050610d788161140b565b92915050565b600081519050610d8d8161140b565b92915050565b60008060208385031215610da657600080fd5b600083013567ffffffffffffffff811115610dc057600080fd5b610dcc85828601610cf5565b92509250509250929050565b600060208284031215610dea57600080fd5b600082013567ffffffffffffffff811115610e0457600080fd5b610e1084828501610d3f565b91505092915050565b600060208284031215610e2b57600080fd5b6000610e3984828501610d69565b91505092915050565b600060208284031215610e5457600080fd5b6000610e6284828501610d7e565b91505092915050565b60008060408385031215610e7e57600080fd5b6000610e8c85828601610d69565b925050602083013567ffffffffffffffff811115610ea957600080fd5b610eb585828601610ccb565b9150509250929050565b610ec8816111c8565b82525050565b610ed7816111da565b82525050565b610ee6816111e6565b82525050565b6000610ef78261116d565b610f018185611178565b9350610f11818560208601611292565b610f1a816113e3565b840191505092915050565b610f2e8161125f565b82525050565b6000610f41600083611189565b9150610f4c826113f4565b600082019050919050565b610f6081611203565b82525050565b610f6f81611271565b82525050565b610f7e81611231565b82525050565b610f8d8161123b565b82525050565b610f9c8161124b565b82525050565b6000610fad82610f34565b9150819050919050565b6000602082019050610fcc6000830184610ebf565b92915050565b6000604082019050610fe76000830185610ebf565b610ff46020830184610ebf565b9392505050565b60006040820190506110106000830185610ece565b81810360208301526110228184610eec565b90509392505050565b600060a0820190506110406000830188610edd565b61104d6020830187610f93565b61105a6040830186610f57565b6110676060830185610f84565b6110746080830184610f66565b9695505050505050565b60006020820190506110936000830184610f25565b92915050565b60006020820190506110ae6000830184610f75565b92915050565b60006060820190506110c96000830186610f75565b6110d66020830185610f75565b6110e36040830184610f75565b949350505050565b60006110f5611106565b905061110182826112c5565b919050565b6000604051905090565b600067ffffffffffffffff82111561112b5761112a6113b4565b5b602082029050602081019050919050565b600067ffffffffffffffff821115611157576111566113b4565b5b611160826113e3565b9050602081019050919050565b600081519050919050565b600082825260208201905092915050565b600081905092915050565b600061119f82611231565b91506111aa83611231565b9250828210156111bd576111bc611327565b5b828203905092915050565b60006111d382611211565b9050919050565b60008115159050919050565b6000819050919050565b60008190506111fe826113f7565b919050565b600061ffff82169050919050565b600073ffffffffffffffffffffffffffffffffffffffff82169050919050565b6000819050919050565b600063ffffffff82169050919050565b600067ffffffffffffffff82169050919050565b600061126a826111f0565b9050919050565b600061127c82611203565b9050919050565b82818337600083830152505050565b60005b838110156112b0578082015181840152602081019050611295565b838111156112bf576000848401525b50505050565b6112ce826113e3565b810181811067ffffffffffffffff821117156112ed576112ec6113b4565b5b80604052505050565b600061130182611231565b915061130c83611231565b92508261131c5761131b611356565b5b828206905092915050565b7f4e487b7100000000000000000000000000000000000000000000000000000000600052601160045260246000fd5b7f4e487b7100000000000000000000000000000000000000000000000000000000600052601260045260246000fd5b7f4e487b7100000000000000000000000000000000000000000000000000000000600052602160045260246000fd5b7f4e487b7100000000000000000000000000000000000000000000000000000000600052604160045260246000fd5b6000601f19601f8301169050919050565b50565b6002811061140857611407611385565b5b50565b61141481611231565b811461141f57600080fd5b5056fea2646970667358221220c2d608ca551a22dd4c7f7607841237518389cd2657fdc789cb984e3012bfaa7a64736f6c63430008040033",
  "linkReferences": {},
  "deployedLinkReferences": {}
}