{
  "_format": "hh-sol-artifact-1",
  "contractName": "lottery",
  "sourceName": "contracts/lottery.sol",
  "abi": [
    {
      "inputs": [
        {
          "internalType": "address",
          "name": "vrfCoordinatorV2",
          "type": "address"
        },
        {
          "internalType": "uint256",
          "name": "_entranceFee",
          "type": "uint256"
        },
        {
          "internalType": "bytes32",
          "name": "gaslane",
          "type": "bytes32"
        },
        {
          "internalType": "uint64",
          "name": "subscriptionId",
          "type": "uint64"
        },
        {
          "internalType": "uint32",
          "name": "callbackGasLimit",
          "type": "uint32"
        }
      ],
      "stateMutability": "nonpayable",
      "type": "constructor"
    },
    {
      "inputs": [
        {
          "internalType": "address",
          "name": "have",
          "type": "address"
        },
        {
          "internalType": "address",
          "name": "want",
          "type": "address"
        }
      ],
      "name": "OnlyCoordinatorCanFulfill",
      "type": "error"
    },
    {
      "inputs": [],
      "name": "sendMoreEth",
      "type": "error"
    },
    {
      "anonymous": false,
      "inputs": [
        {
          "indexed": true,
          "internalType": "uint256",
          "name": "_amount",
          "type": "uint256"
        },
        {
          "indexed": true,
          "internalType": "address",
          "name": "_player",
          "type": "address"
        }
      ],
      "name": "newPlayer",
      "type": "event"
    },
    {
      "anonymous": false,
      "inputs": [
        {
          "indexed": true,
          "internalType": "uint256",
          "name": "requestId",
          "type": "uint256"
        }
      ],
      "name": "requestRandomWinner",
      "type": "event"
    },
    {
      "inputs": [],
      "name": "createRandomWinner",
      "outputs": [],
      "stateMutability": "nonpayable",
      "type": "function"
    },
    {
      "inputs": [],
      "name": "enterLottery",
      "outputs": [],
      "stateMutability": "payable",
      "type": "function"
    },
    {
      "inputs": [],
      "name": "getEntranceFee",
      "outputs": [
        {
          "internalType": "uint256",
          "name": "",
          "type": "uint256"
        }
      ],
      "stateMutability": "view",
      "type": "function"
    },
    {
      "inputs": [
        {
          "internalType": "uint256",
          "name": "index",
          "type": "uint256"
        }
      ],
      "name": "getPlayer",
      "outputs": [
        {
          "internalType": "address",
          "name": "",
          "type": "address"
        }
      ],
      "stateMutability": "view",
      "type": "function"
    },
    {
      "inputs": [],
      "name": "getRecentWinner",
      "outputs": [
        {
          "internalType": "address",
          "name": "",
          "type": "address"
        }
      ],
      "stateMutability": "view",
      "type": "function"
    },
    {
      "inputs": [
        {
          "internalType": "uint256",
          "name": "requestId",
          "type": "uint256"
        },
        {
          "internalType": "uint256[]",
          "name": "randomWords",
          "type": "uint256[]"
        }
      ],
      "name": "rawFulfillRandomWords",
      "outputs": [],
      "stateMutability": "nonpayable",
      "type": "function"
    }
  ],
  "bytecode": "0x6101406040523480156200001257600080fd5b5060405162000dc838038062000dc883398181016040528101906200003891906200016e565b848073ffffffffffffffffffffffffffffffffffffffff1660808173ffffffffffffffffffffffffffffffffffffffff1660601b81525050508360a081815250508473ffffffffffffffffffffffffffffffffffffffff1660c08173ffffffffffffffffffffffffffffffffffffffff1660601b815250508260e081815250508167ffffffffffffffff166101008167ffffffffffffffff1660c01b815250508063ffffffff166101208163ffffffff1660e01b815250505050505050620002de565b6000815190506200010c816200025c565b92915050565b600081519050620001238162000276565b92915050565b6000815190506200013a8162000290565b92915050565b6000815190506200015181620002aa565b92915050565b6000815190506200016881620002c4565b92915050565b600080600080600060a086880312156200018757600080fd5b60006200019788828901620000fb565b9550506020620001aa8882890162000129565b9450506040620001bd8882890162000112565b9350506060620001d08882890162000157565b9250506080620001e38882890162000140565b9150509295509295909350565b6000620001fd826200020e565b9050919050565b6000819050919050565b600073ffffffffffffffffffffffffffffffffffffffff82169050919050565b6000819050919050565b600063ffffffff82169050919050565b600067ffffffffffffffff82169050919050565b6200026781620001f0565b81146200027357600080fd5b50565b620002818162000204565b81146200028d57600080fd5b50565b6200029b816200022e565b8114620002a757600080fd5b50565b620002b58162000238565b8114620002c157600080fd5b50565b620002cf8162000248565b8114620002db57600080fd5b50565b60805160601c60a05160c05160601c60e0516101005160c01c6101205160e01c610a806200034860003960006101e3015260006101c00152600061019f0152600061016301526000818161013b01526103940152600081816102aa01526102fe0152610a806000f3fe6080604052600436106100555760003560e01c806309bc33a71461005a578063188649dd146100855780631fe543e31461009c578063473f1ddc146100c5578063c1af5785146100f0578063e55ae4e8146100fa575b600080fd5b34801561006657600080fd5b5061006f610137565b60405161007c919061086c565b60405180910390f35b34801561009157600080fd5b5061009a61015f565b005b3480156100a857600080fd5b506100c360048036038101906100be9190610718565b6102a8565b005b3480156100d157600080fd5b506100da610368565b6040516100e791906107d5565b60405180910390f35b6100f8610392565b005b34801561010657600080fd5b50610121600480360381019061011c91906106c6565b610495565b60405161012e91906107d5565b60405180910390f35b60007f0000000000000000000000000000000000000000000000000000000000000000905090565b60007f000000000000000000000000000000000000000000000000000000000000000073ffffffffffffffffffffffffffffffffffffffff16635d3b1d307f00000000000000000000000000000000000000000000000000000000000000007f000000000000000000000000000000000000000000000000000000000000000060037f000000000000000000000000000000000000000000000000000000000000000060016040518663ffffffff1660e01b8152600401610224959493929190610819565b602060405180830381600087803b15801561023e57600080fd5b505af1158015610252573d6000803e3d6000fd5b505050506040513d601f19601f8201168201806040525081019061027691906106ef565b9050807f5e42a34530a308d44a84f0c245afbe71f18da82562b8d6ce22888f2ba8d3a28e60405160405180910390a250565b7f000000000000000000000000000000000000000000000000000000000000000073ffffffffffffffffffffffffffffffffffffffff163373ffffffffffffffffffffffffffffffffffffffff161461035a57337f00000000000000000000000000000000000000000000000000000000000000006040517f1cf993f40000000000000000000000000000000000000000000000000000000081526004016103519291906107f0565b60405180910390fd5b6103648282610502565b5050565b6000600160009054906101000a900473ffffffffffffffffffffffffffffffffffffffff16905090565b7f00000000000000000000000000000000000000000000000000000000000000003410156103ec576040517fda88e3ab00000000000000000000000000000000000000000000000000000000815260040160405180910390fd5b6000339080600181540180825580915050600190039060005260206000200160009091909190916101000a81548173ffffffffffffffffffffffffffffffffffffffff021916908373ffffffffffffffffffffffffffffffffffffffff1602179055503373ffffffffffffffffffffffffffffffffffffffff16347f24db4f65d53d68dc208151fc0a00d767da628055a922836a07edef3b5732f9a260405160405180910390a3565b60008082815481106104d0577f4e487b7100000000000000000000000000000000000000000000000000000000600052603260045260246000fd5b9060005260206000200160009054906101000a900473ffffffffffffffffffffffffffffffffffffffff169050919050565b6000808054905082600081518110610543577f4e487b7100000000000000000000000000000000000000000000000000000000600052603260045260246000fd5b60200260200101516105559190610993565b90506000808281548110610592577f4e487b7100000000000000000000000000000000000000000000000000000000600052603260045260246000fd5b9060005260206000200160009054906101000a900473ffffffffffffffffffffffffffffffffffffffff16905080600160006101000a81548173ffffffffffffffffffffffffffffffffffffffff021916908373ffffffffffffffffffffffffffffffffffffffff16021790555050505050565b6000610619610614846108ac565b610887565b9050808382526020820190508285602086028201111561063857600080fd5b60005b85811015610668578161064e888261069c565b84526020840193506020830192505060018101905061063b565b5050509392505050565b600082601f83011261068357600080fd5b8135610693848260208601610606565b91505092915050565b6000813590506106ab81610a33565b92915050565b6000815190506106c081610a33565b92915050565b6000602082840312156106d857600080fd5b60006106e68482850161069c565b91505092915050565b60006020828403121561070157600080fd5b600061070f848285016106b1565b91505092915050565b6000806040838503121561072b57600080fd5b60006107398582860161069c565b925050602083013567ffffffffffffffff81111561075657600080fd5b61076285828601610672565b9150509250929050565b610775816108d8565b82525050565b610784816108ea565b82525050565b610793816108f4565b82525050565b6107a281610950565b82525050565b6107b181610922565b82525050565b6107c08161092c565b82525050565b6107cf8161093c565b82525050565b60006020820190506107ea600083018461076c565b92915050565b6000604082019050610805600083018561076c565b610812602083018461076c565b9392505050565b600060a08201905061082e600083018861077b565b61083b60208301876107c6565b610848604083018661078a565b61085560608301856107b7565b6108626080830184610799565b9695505050505050565b600060208201905061088160008301846107a8565b92915050565b60006108916108a2565b905061089d8282610962565b919050565b6000604051905090565b600067ffffffffffffffff8211156108c7576108c66109f3565b5b602082029050602081019050919050565b60006108e382610902565b9050919050565b6000819050919050565b600061ffff82169050919050565b600073ffffffffffffffffffffffffffffffffffffffff82169050919050565b6000819050919050565b600063ffffffff82169050919050565b600067ffffffffffffffff82169050919050565b600061095b826108f4565b9050919050565b61096b82610a22565b810181811067ffffffffffffffff8211171561098a576109896109f3565b5b80604052505050565b600061099e82610922565b91506109a983610922565b9250826109b9576109b86109c4565b5b828206905092915050565b7f4e487b7100000000000000000000000000000000000000000000000000000000600052601260045260246000fd5b7f4e487b7100000000000000000000000000000000000000000000000000000000600052604160045260246000fd5b6000601f19601f8301169050919050565b610a3c81610922565b8114610a4757600080fd5b5056fea2646970667358221220cf5944a1e3b96b8fca7c640330096350fda52cc6b07ac08bf68e60afa0578eea64736f6c63430008040033",
  "linkReferences": {},
  "deployedLinkReferences": {}
}