{
  "_format": "hh-sol-artifact-1",
  "contractName": "Lottery",
  "sourceName": "contracts/lottery.sol",
  "abi": [
    {
      "inputs": [
        {
          "internalType": "address",
          "name": "vrfCoordinatorV2",
          "type": "address"
        },
        {
          "internalType": "uint256",
          "name": "_entranceFee",
          "type": "uint256"
        },
        {
          "internalType": "bytes32",
          "name": "gaslane",
          "type": "bytes32"
        },
        {
          "internalType": "uint64",
          "name": "subscriptionId",
          "type": "uint64"
        },
        {
          "internalType": "uint32",
          "name": "callbackGasLimit",
          "type": "uint32"
        },
        {
          "internalType": "uint256",
          "name": "interval",
          "type": "uint256"
        }
      ],
      "stateMutability": "nonpayable",
      "type": "constructor"
    },
    {
      "inputs": [],
      "name": "Lottery__MoneyNotSent",
      "type": "error"
    },
    {
      "inputs": [],
      "name": "Lottery__NotAvailable",
      "type": "error"
    },
    {
      "inputs": [
        {
          "internalType": "uint256",
          "name": "balance",
          "type": "uint256"
        },
        {
          "internalType": "uint256",
          "name": "numPlayers",
          "type": "uint256"
        },
        {
          "internalType": "uint256",
          "name": "LotteryState",
          "type": "uint256"
        }
      ],
      "name": "Lottery__UpkeepNotNeeded",
      "type": "error"
    },
    {
      "inputs": [],
      "name": "Lottery__sendMoreEth",
      "type": "error"
    },
    {
      "inputs": [
        {
          "internalType": "address",
          "name": "have",
          "type": "address"
        },
        {
          "internalType": "address",
          "name": "want",
          "type": "address"
        }
      ],
      "name": "OnlyCoordinatorCanFulfill",
      "type": "error"
    },
    {
      "anonymous": false,
      "inputs": [
        {
          "indexed": true,
          "internalType": "address",
          "name": "winnners",
          "type": "address"
        }
      ],
      "name": "PastWinners",
      "type": "event"
    },
    {
      "anonymous": false,
      "inputs": [
        {
          "indexed": true,
          "internalType": "uint256",
          "name": "_amount",
          "type": "uint256"
        },
        {
          "indexed": true,
          "internalType": "address",
          "name": "_player",
          "type": "address"
        }
      ],
      "name": "newPlayer",
      "type": "event"
    },
    {
      "inputs": [
        {
          "internalType": "bytes",
          "name": "",
          "type": "bytes"
        }
      ],
      "name": "checkUpkeep",
      "outputs": [
        {
          "internalType": "bool",
          "name": "upkeepNeeded",
          "type": "bool"
        },
        {
          "internalType": "bytes",
          "name": "",
          "type": "bytes"
        }
      ],
      "stateMutability": "nonpayable",
      "type": "function"
    },
    {
      "inputs": [],
      "name": "enterLottery",
      "outputs": [],
      "stateMutability": "payable",
      "type": "function"
    },
    {
      "inputs": [],
      "name": "getEntranceFee",
      "outputs": [
        {
          "internalType": "uint256",
          "name": "",
          "type": "uint256"
        }
      ],
      "stateMutability": "view",
      "type": "function"
    },
    {
      "inputs": [],
      "name": "getInterval",
      "outputs": [
        {
          "internalType": "uint256",
          "name": "",
          "type": "uint256"
        }
      ],
      "stateMutability": "view",
      "type": "function"
    },
    {
      "inputs": [],
      "name": "getLatestTimeStamp",
      "outputs": [
        {
          "internalType": "uint256",
          "name": "",
          "type": "uint256"
        }
      ],
      "stateMutability": "view",
      "type": "function"
    },
    {
      "inputs": [],
      "name": "getLotteryState",
      "outputs": [
        {
          "internalType": "enum Lottery.LotteryState",
          "name": "",
          "type": "uint8"
        }
      ],
      "stateMutability": "view",
      "type": "function"
    },
    {
      "inputs": [],
      "name": "getNumOfPlayers",
      "outputs": [
        {
          "internalType": "uint256",
          "name": "",
          "type": "uint256"
        }
      ],
      "stateMutability": "view",
      "type": "function"
    },
    {
      "inputs": [],
      "name": "getNumWords",
      "outputs": [
        {
          "internalType": "uint256",
          "name": "",
          "type": "uint256"
        }
      ],
      "stateMutability": "pure",
      "type": "function"
    },
    {
      "inputs": [
        {
          "internalType": "uint256",
          "name": "index",
          "type": "uint256"
        }
      ],
      "name": "getPlayer",
      "outputs": [
        {
          "internalType": "address",
          "name": "",
          "type": "address"
        }
      ],
      "stateMutability": "view",
      "type": "function"
    },
    {
      "inputs": [],
      "name": "getRecentWinner",
      "outputs": [
        {
          "internalType": "address",
          "name": "",
          "type": "address"
        }
      ],
      "stateMutability": "view",
      "type": "function"
    },
    {
      "inputs": [],
      "name": "getRequestConfirmation",
      "outputs": [
        {
          "internalType": "uint256",
          "name": "",
          "type": "uint256"
        }
      ],
      "stateMutability": "pure",
      "type": "function"
    },
    {
      "inputs": [
        {
          "internalType": "bytes",
          "name": "",
          "type": "bytes"
        }
      ],
      "name": "performUpkeep",
      "outputs": [],
      "stateMutability": "nonpayable",
      "type": "function"
    },
    {
      "inputs": [
        {
          "internalType": "uint256",
          "name": "requestId",
          "type": "uint256"
        },
        {
          "internalType": "uint256[]",
          "name": "randomWords",
          "type": "uint256[]"
        }
      ],
      "name": "rawFulfillRandomWords",
      "outputs": [],
      "stateMutability": "nonpayable",
      "type": "function"
    }
  ],
  "bytecode": "0x6101606040523480156200001257600080fd5b506040516200192f3803806200192f8339818101604052810190620000389190620001d1565b858073ffffffffffffffffffffffffffffffffffffffff1660808173ffffffffffffffffffffffffffffffffffffffff1660601b81525050508460c081815250508573ffffffffffffffffffffffffffffffffffffffff1660a08173ffffffffffffffffffffffffffffffffffffffff1660601b815250508360e081815250508267ffffffffffffffff166101008167ffffffffffffffff1660c01b815250508163ffffffff166101208163ffffffff1660e01b815250506000600160146101000a81548160ff021916908360018111156200013d577f4e487b7100000000000000000000000000000000000000000000000000000000600052602160045260246000fd5b02179055504260028190555080610140818152505050505050505062000355565b6000815190506200016f81620002d3565b92915050565b6000815190506200018681620002ed565b92915050565b6000815190506200019d8162000307565b92915050565b600081519050620001b48162000321565b92915050565b600081519050620001cb816200033b565b92915050565b60008060008060008060c08789031215620001eb57600080fd5b6000620001fb89828a016200015e565b96505060206200020e89828a016200018c565b95505060406200022189828a0162000175565b94505060606200023489828a01620001ba565b93505060806200024789828a01620001a3565b92505060a06200025a89828a016200018c565b9150509295509295509295565b6000620002748262000285565b9050919050565b6000819050919050565b600073ffffffffffffffffffffffffffffffffffffffff82169050919050565b6000819050919050565b600063ffffffff82169050919050565b600067ffffffffffffffff82169050919050565b620002de8162000267565b8114620002ea57600080fd5b50565b620002f8816200027b565b81146200030457600080fd5b50565b6200031281620002a5565b81146200031e57600080fd5b50565b6200032c81620002af565b81146200033857600080fd5b50565b6200034681620002bf565b81146200035257600080fd5b50565b60805160601c60a05160601c60c05160e0516101005160c01c6101205160e01c6101405161155e620003d1600039600081816106ef015261075d0152600061056b01526000610548015260006105270152600081816102fa0152610783015260006104eb0152600081816103200152610374015261155e6000f3fe6080604052600436106100c25760003560e01c8063565429de1161007f57806391ad27b41161005957806391ad27b414610259578063c1af578514610284578063ca6a9ef81461028e578063e55ae4e8146102b9576100c2565b8063565429de146101c55780636b68c03c146101f05780636e04ff0d1461021b576100c2565b806309bc33a7146100c75780631fe543e3146100f2578063320229eb1461011b5780634585e33b14610146578063473f1ddc1461016f57806353a2c19a1461019a575b600080fd5b3480156100d357600080fd5b506100dc6102f6565b6040516100e9919061119f565b60405180910390f35b3480156100fe57600080fd5b5061011960048036038101906101149190610f71565b61031e565b005b34801561012757600080fd5b506101306103de565b60405161013d919061119f565b60405180910390f35b34801561015257600080fd5b5061016d60048036038101906101689190610e99565b6103e8565b005b34801561017b57600080fd5b50610184610606565b60405161019191906110bd565b60405180910390f35b3480156101a657600080fd5b506101af610630565b6040516101bc919061119f565b60405180910390f35b3480156101d157600080fd5b506101da61063d565b6040516101e7919061119f565b60405180910390f35b3480156101fc57600080fd5b50610205610649565b6040516102129190611184565b60405180910390f35b34801561022757600080fd5b50610242600480360381019061023d9190610ede565b610660565b604051610250929190611101565b60405180910390f35b34801561026557600080fd5b5061026e610759565b60405161027b919061119f565b60405180910390f35b61028c610781565b005b34801561029a57600080fd5b506102a361093d565b6040516102b0919061119f565b60405180910390f35b3480156102c557600080fd5b506102e060048036038101906102db9190610f1f565b61094a565b6040516102ed91906110bd565b60405180910390f35b60007f0000000000000000000000000000000000000000000000000000000000000000905090565b7f000000000000000000000000000000000000000000000000000000000000000073ffffffffffffffffffffffffffffffffffffffff163373ffffffffffffffffffffffffffffffffffffffff16146103d057337f00000000000000000000000000000000000000000000000000000000000000006040517f1cf993f40000000000000000000000000000000000000000000000000000000081526004016103c79291906110d8565b60405180910390fd5b6103da82826109b7565b5050565b6000600254905090565b600061040260405180602001604052806000815250610660565b509050806104975747600080549050600160149054906101000a900460ff166001811115610459577f4e487b7100000000000000000000000000000000000000000000000000000000600052602160045260246000fd5b6040517f6e195f2500000000000000000000000000000000000000000000000000000000815260040161048e939291906111ba565b60405180910390fd5b60018060146101000a81548160ff021916908360018111156104e2577f4e487b7100000000000000000000000000000000000000000000000000000000600052602160045260246000fd5b021790555060007f000000000000000000000000000000000000000000000000000000000000000073ffffffffffffffffffffffffffffffffffffffff16635d3b1d307f00000000000000000000000000000000000000000000000000000000000000007f000000000000000000000000000000000000000000000000000000000000000060037f000000000000000000000000000000000000000000000000000000000000000060016040518663ffffffff1660e01b81526004016105ac959493929190611131565b602060405180830381600087803b1580156105c657600080fd5b505af11580156105da573d6000803e3d6000fd5b505050506040513d601f19601f820116820180604052508101906105fe9190610f48565b905050505050565b6000600160009054906101000a900473ffffffffffffffffffffffffffffffffffffffff16905090565b6000600161ffff16905090565b60008080549050905090565b6000600160149054906101000a900460ff16905090565b600060606000600160149054906101000a900460ff1660018111156106ae577f4e487b7100000000000000000000000000000000000000000000000000000000600052602160045260246000fd5b600060018111156106e8577f4e487b7100000000000000000000000000000000000000000000000000000000600052602160045260246000fd5b14905060007f00000000000000000000000000000000000000000000000000000000000000006002544261071c919061129a565b1190506000806000805490501190506000804711905083801561073c5750825b80156107455750815b801561074e5750805b955050505050915091565b60007f0000000000000000000000000000000000000000000000000000000000000000905090565b7f00000000000000000000000000000000000000000000000000000000000000003410156107db576040517f84da4c9d00000000000000000000000000000000000000000000000000000000815260040160405180910390fd5b60006001811115610815577f4e487b7100000000000000000000000000000000000000000000000000000000600052602160045260246000fd5b600160149054906101000a900460ff16600181111561085d577f4e487b7100000000000000000000000000000000000000000000000000000000600052602160045260246000fd5b14610894576040517f3c415f9900000000000000000000000000000000000000000000000000000000815260040160405180910390fd5b6000339080600181540180825580915050600190039060005260206000200160009091909190916101000a81548173ffffffffffffffffffffffffffffffffffffffff021916908373ffffffffffffffffffffffffffffffffffffffff1602179055503373ffffffffffffffffffffffffffffffffffffffff16347f24db4f65d53d68dc208151fc0a00d767da628055a922836a07edef3b5732f9a260405160405180910390a3565b6000600361ffff16905090565b6000808281548110610985577f4e487b7100000000000000000000000000000000000000000000000000000000600052603260045260246000fd5b9060005260206000200160009054906101000a900473ffffffffffffffffffffffffffffffffffffffff169050919050565b60008080549050826000815181106109f8577f4e487b7100000000000000000000000000000000000000000000000000000000600052603260045260246000fd5b6020026020010151610a0a91906113fc565b90506000808281548110610a47577f4e487b7100000000000000000000000000000000000000000000000000000000600052603260045260246000fd5b9060005260206000200160009054906101000a900473ffffffffffffffffffffffffffffffffffffffff16905080600160006101000a81548173ffffffffffffffffffffffffffffffffffffffff021916908373ffffffffffffffffffffffffffffffffffffffff1602179055506000600160146101000a81548160ff02191690836001811115610b01577f4e487b7100000000000000000000000000000000000000000000000000000000600052602160045260246000fd5b0217905550600067ffffffffffffffff811115610b47577f4e487b7100000000000000000000000000000000000000000000000000000000600052604160045260246000fd5b604051908082528060200260200182016040528015610b755781602001602082028036833780820191505090505b5060009080519060200190610b8b929190610c80565b504260028190555060008173ffffffffffffffffffffffffffffffffffffffff1647604051610bb9906110a8565b60006040518083038185875af1925050503d8060008114610bf6576040519150601f19603f3d011682016040523d82523d6000602084013e610bfb565b606091505b5050905080610c36576040517f3a47374900000000000000000000000000000000000000000000000000000000815260040160405180910390fd5b8173ffffffffffffffffffffffffffffffffffffffff167f601e33d170071d70bb66dd1d0ea49f34527d57cbf762ee37fd7c54f7fc12ef5a60405160405180910390a25050505050565b828054828255906000526020600020908101928215610cf9579160200282015b82811115610cf85782518260006101000a81548173ffffffffffffffffffffffffffffffffffffffff021916908373ffffffffffffffffffffffffffffffffffffffff16021790555091602001919060010190610ca0565b5b509050610d069190610d0a565b5090565b5b80821115610d23576000816000905550600101610d0b565b5090565b6000610d3a610d3584611216565b6111f1565b90508083825260208201905082856020860282011115610d5957600080fd5b60005b85811015610d895781610d6f8882610e6f565b845260208401935060208301925050600181019050610d5c565b5050509392505050565b6000610da6610da184611242565b6111f1565b905082815260208101848484011115610dbe57600080fd5b610dc9848285611389565b509392505050565b600082601f830112610de257600080fd5b8135610df2848260208601610d27565b91505092915050565b60008083601f840112610e0d57600080fd5b8235905067ffffffffffffffff811115610e2657600080fd5b602083019150836001820283011115610e3e57600080fd5b9250929050565b600082601f830112610e5657600080fd5b8135610e66848260208601610d93565b91505092915050565b600081359050610e7e81611511565b92915050565b600081519050610e9381611511565b92915050565b60008060208385031215610eac57600080fd5b600083013567ffffffffffffffff811115610ec657600080fd5b610ed285828601610dfb565b92509250509250929050565b600060208284031215610ef057600080fd5b600082013567ffffffffffffffff811115610f0a57600080fd5b610f1684828501610e45565b91505092915050565b600060208284031215610f3157600080fd5b6000610f3f84828501610e6f565b91505092915050565b600060208284031215610f5a57600080fd5b6000610f6884828501610e84565b91505092915050565b60008060408385031215610f8457600080fd5b6000610f9285828601610e6f565b925050602083013567ffffffffffffffff811115610faf57600080fd5b610fbb85828601610dd1565b9150509250929050565b610fce816112ce565b82525050565b610fdd816112e0565b82525050565b610fec816112ec565b82525050565b6000610ffd82611273565b611007818561127e565b9350611017818560208601611398565b611020816114e9565b840191505092915050565b61103481611365565b82525050565b600061104760008361128f565b9150611052826114fa565b600082019050919050565b61106681611309565b82525050565b61107581611377565b82525050565b61108481611337565b82525050565b61109381611341565b82525050565b6110a281611351565b82525050565b60006110b38261103a565b9150819050919050565b60006020820190506110d26000830184610fc5565b92915050565b60006040820190506110ed6000830185610fc5565b6110fa6020830184610fc5565b9392505050565b60006040820190506111166000830185610fd4565b81810360208301526111288184610ff2565b90509392505050565b600060a0820190506111466000830188610fe3565b6111536020830187611099565b611160604083018661105d565b61116d606083018561108a565b61117a608083018461106c565b9695505050505050565b6000602082019050611199600083018461102b565b92915050565b60006020820190506111b4600083018461107b565b92915050565b60006060820190506111cf600083018661107b565b6111dc602083018561107b565b6111e9604083018461107b565b949350505050565b60006111fb61120c565b905061120782826113cb565b919050565b6000604051905090565b600067ffffffffffffffff821115611231576112306114ba565b5b602082029050602081019050919050565b600067ffffffffffffffff82111561125d5761125c6114ba565b5b611266826114e9565b9050602081019050919050565b600081519050919050565b600082825260208201905092915050565b600081905092915050565b60006112a582611337565b91506112b083611337565b9250828210156112c3576112c261142d565b5b828203905092915050565b60006112d982611317565b9050919050565b60008115159050919050565b6000819050919050565b6000819050611304826114fd565b919050565b600061ffff82169050919050565b600073ffffffffffffffffffffffffffffffffffffffff82169050919050565b6000819050919050565b600063ffffffff82169050919050565b600067ffffffffffffffff82169050919050565b6000611370826112f6565b9050919050565b600061138282611309565b9050919050565b82818337600083830152505050565b60005b838110156113b657808201518184015260208101905061139b565b838111156113c5576000848401525b50505050565b6113d4826114e9565b810181811067ffffffffffffffff821117156113f3576113f26114ba565b5b80604052505050565b600061140782611337565b915061141283611337565b9250826114225761142161145c565b5b828206905092915050565b7f4e487b7100000000000000000000000000000000000000000000000000000000600052601160045260246000fd5b7f4e487b7100000000000000000000000000000000000000000000000000000000600052601260045260246000fd5b7f4e487b7100000000000000000000000000000000000000000000000000000000600052602160045260246000fd5b7f4e487b7100000000000000000000000000000000000000000000000000000000600052604160045260246000fd5b6000601f19601f8301169050919050565b50565b6002811061150e5761150d61148b565b5b50565b61151a81611337565b811461152557600080fd5b5056fea2646970667358221220e5355ae9f5e10c1a1e90b0c66ae9aafda70d2e0676110b3195d569d619925cb464736f6c63430008040033",
  "linkReferences": {},
  "deployedLinkReferences": {}
}