{
  "_format": "hh-sol-artifact-1",
  "contractName": "Lottery",
  "sourceName": "contracts/lottery.sol",
  "abi": [
    {
      "inputs": [
        {
          "internalType": "address",
          "name": "vrfCoordinatorV2",
          "type": "address"
        },
        {
          "internalType": "uint256",
          "name": "_entranceFee",
          "type": "uint256"
        },
        {
          "internalType": "bytes32",
          "name": "gaslane",
          "type": "bytes32"
        },
        {
          "internalType": "uint64",
          "name": "subscriptionId",
          "type": "uint64"
        },
        {
          "internalType": "uint32",
          "name": "callbackGasLimit",
          "type": "uint32"
        },
        {
          "internalType": "uint256",
          "name": "interval",
          "type": "uint256"
        }
      ],
      "stateMutability": "nonpayable",
      "type": "constructor"
    },
    {
      "inputs": [],
      "name": "Lottery__MoneyNotSent",
      "type": "error"
    },
    {
      "inputs": [],
      "name": "Lottery__NotAvailable",
      "type": "error"
    },
    {
      "inputs": [
        {
          "internalType": "uint256",
          "name": "balance",
          "type": "uint256"
        },
        {
          "internalType": "uint256",
          "name": "numPlayers",
          "type": "uint256"
        },
        {
          "internalType": "uint256",
          "name": "LotteryState",
          "type": "uint256"
        }
      ],
      "name": "Lottery__UpkeepNotNeeded",
      "type": "error"
    },
    {
      "inputs": [],
      "name": "Lottery__sendMoreEth",
      "type": "error"
    },
    {
      "inputs": [
        {
          "internalType": "address",
          "name": "have",
          "type": "address"
        },
        {
          "internalType": "address",
          "name": "want",
          "type": "address"
        }
      ],
      "name": "OnlyCoordinatorCanFulfill",
      "type": "error"
    },
    {
      "anonymous": false,
      "inputs": [
        {
          "indexed": true,
          "internalType": "address",
          "name": "winnners",
          "type": "address"
        }
      ],
      "name": "PastWinners",
      "type": "event"
    },
    {
      "anonymous": false,
      "inputs": [
        {
          "indexed": true,
          "internalType": "uint256",
          "name": "_amount",
          "type": "uint256"
        },
        {
          "indexed": true,
          "internalType": "address",
          "name": "_player",
          "type": "address"
        }
      ],
      "name": "newPlayer",
      "type": "event"
    },
    {
      "inputs": [
        {
          "internalType": "bytes",
          "name": "",
          "type": "bytes"
        }
      ],
      "name": "checkUpkeep",
      "outputs": [
        {
          "internalType": "bool",
          "name": "upkeepNeeded",
          "type": "bool"
        },
        {
          "internalType": "bytes",
          "name": "",
          "type": "bytes"
        }
      ],
      "stateMutability": "nonpayable",
      "type": "function"
    },
    {
      "inputs": [],
      "name": "enterLottery",
      "outputs": [],
      "stateMutability": "payable",
      "type": "function"
    },
    {
      "inputs": [],
      "name": "getEntranceFee",
      "outputs": [
        {
          "internalType": "uint256",
          "name": "",
          "type": "uint256"
        }
      ],
      "stateMutability": "view",
      "type": "function"
    },
    {
      "inputs": [],
      "name": "getLatestTimeStamp",
      "outputs": [
        {
          "internalType": "uint256",
          "name": "",
          "type": "uint256"
        }
      ],
      "stateMutability": "view",
      "type": "function"
    },
    {
      "inputs": [],
      "name": "getLotteryState",
      "outputs": [
        {
          "internalType": "enum Lottery.LotteryState",
          "name": "",
          "type": "uint8"
        }
      ],
      "stateMutability": "view",
      "type": "function"
    },
    {
      "inputs": [],
      "name": "getNumOfPlayers",
      "outputs": [
        {
          "internalType": "uint256",
          "name": "",
          "type": "uint256"
        }
      ],
      "stateMutability": "view",
      "type": "function"
    },
    {
      "inputs": [],
      "name": "getNumWords",
      "outputs": [
        {
          "internalType": "uint256",
          "name": "",
          "type": "uint256"
        }
      ],
      "stateMutability": "pure",
      "type": "function"
    },
    {
      "inputs": [
        {
          "internalType": "uint256",
          "name": "index",
          "type": "uint256"
        }
      ],
      "name": "getPlayer",
      "outputs": [
        {
          "internalType": "address",
          "name": "",
          "type": "address"
        }
      ],
      "stateMutability": "view",
      "type": "function"
    },
    {
      "inputs": [],
      "name": "getRecentWinner",
      "outputs": [
        {
          "internalType": "address",
          "name": "",
          "type": "address"
        }
      ],
      "stateMutability": "view",
      "type": "function"
    },
    {
      "inputs": [],
      "name": "getRequestConfirmation",
      "outputs": [
        {
          "internalType": "uint256",
          "name": "",
          "type": "uint256"
        }
      ],
      "stateMutability": "pure",
      "type": "function"
    },
    {
      "inputs": [
        {
          "internalType": "bytes",
          "name": "",
          "type": "bytes"
        }
      ],
      "name": "performUpkeep",
      "outputs": [],
      "stateMutability": "nonpayable",
      "type": "function"
    },
    {
      "inputs": [
        {
          "internalType": "uint256",
          "name": "requestId",
          "type": "uint256"
        },
        {
          "internalType": "uint256[]",
          "name": "randomWords",
          "type": "uint256[]"
        }
      ],
      "name": "rawFulfillRandomWords",
      "outputs": [],
      "stateMutability": "nonpayable",
      "type": "function"
    }
  ],
  "bytecode": "0x6101606040523480156200001257600080fd5b50604051620018ba380380620018ba8339818101604052810190620000389190620001d1565b858073ffffffffffffffffffffffffffffffffffffffff1660808173ffffffffffffffffffffffffffffffffffffffff1660601b81525050508460c081815250508573ffffffffffffffffffffffffffffffffffffffff1660a08173ffffffffffffffffffffffffffffffffffffffff1660601b815250508360e081815250508267ffffffffffffffff166101008167ffffffffffffffff1660c01b815250508163ffffffff166101208163ffffffff1660e01b815250506000600160146101000a81548160ff021916908360018111156200013d577f4e487b7100000000000000000000000000000000000000000000000000000000600052602160045260246000fd5b02179055504260028190555080610140818152505050505050505062000355565b6000815190506200016f81620002d3565b92915050565b6000815190506200018681620002ed565b92915050565b6000815190506200019d8162000307565b92915050565b600081519050620001b48162000321565b92915050565b600081519050620001cb816200033b565b92915050565b60008060008060008060c08789031215620001eb57600080fd5b6000620001fb89828a016200015e565b96505060206200020e89828a016200018c565b95505060406200022189828a0162000175565b94505060606200023489828a01620001ba565b93505060806200024789828a01620001a3565b92505060a06200025a89828a016200018c565b9150509295509295509295565b6000620002748262000285565b9050919050565b6000819050919050565b600073ffffffffffffffffffffffffffffffffffffffff82169050919050565b6000819050919050565b600063ffffffff82169050919050565b600067ffffffffffffffff82169050919050565b620002de8162000267565b8114620002ea57600080fd5b50565b620002f8816200027b565b81146200030457600080fd5b50565b6200031281620002a5565b81146200031e57600080fd5b50565b6200032c81620002af565b81146200033857600080fd5b50565b6200034681620002bf565b81146200035257600080fd5b50565b60805160601c60a05160601c60c05160e0516101005160c01c6101205160e01c610140516114f0620003ca60003960006106a90152600061052501526000610502015260006104e10152600081816102b40152610715015260006104a50152600081816102da015261032e01526114f06000f3fe6080604052600436106100a75760003560e01c8063565429de11610064578063565429de146101aa5780636b68c03c146101d55780636e04ff0d14610200578063c1af57851461023e578063ca6a9ef814610248578063e55ae4e814610273576100a7565b806309bc33a7146100ac5780631fe543e3146100d7578063320229eb146101005780634585e33b1461012b578063473f1ddc1461015457806353a2c19a1461017f575b600080fd5b3480156100b857600080fd5b506100c16102b0565b6040516100ce9190611131565b60405180910390f35b3480156100e357600080fd5b506100fe60048036038101906100f99190610f03565b6102d8565b005b34801561010c57600080fd5b50610115610398565b6040516101229190611131565b60405180910390f35b34801561013757600080fd5b50610152600480360381019061014d9190610e2b565b6103a2565b005b34801561016057600080fd5b506101696105c0565b604051610176919061104f565b60405180910390f35b34801561018b57600080fd5b506101946105ea565b6040516101a19190611131565b60405180910390f35b3480156101b657600080fd5b506101bf6105f7565b6040516101cc9190611131565b60405180910390f35b3480156101e157600080fd5b506101ea610603565b6040516101f79190611116565b60405180910390f35b34801561020c57600080fd5b5061022760048036038101906102229190610e70565b61061a565b604051610235929190611093565b60405180910390f35b610246610713565b005b34801561025457600080fd5b5061025d6108cf565b60405161026a9190611131565b60405180910390f35b34801561027f57600080fd5b5061029a60048036038101906102959190610eb1565b6108dc565b6040516102a7919061104f565b60405180910390f35b60007f0000000000000000000000000000000000000000000000000000000000000000905090565b7f000000000000000000000000000000000000000000000000000000000000000073ffffffffffffffffffffffffffffffffffffffff163373ffffffffffffffffffffffffffffffffffffffff161461038a57337f00000000000000000000000000000000000000000000000000000000000000006040517f1cf993f400000000000000000000000000000000000000000000000000000000815260040161038192919061106a565b60405180910390fd5b6103948282610949565b5050565b6000600254905090565b60006103bc6040518060200160405280600081525061061a565b509050806104515747600080549050600160149054906101000a900460ff166001811115610413577f4e487b7100000000000000000000000000000000000000000000000000000000600052602160045260246000fd5b6040517f6e195f250000000000000000000000000000000000000000000000000000000081526004016104489392919061114c565b60405180910390fd5b60018060146101000a81548160ff0219169083600181111561049c577f4e487b7100000000000000000000000000000000000000000000000000000000600052602160045260246000fd5b021790555060007f000000000000000000000000000000000000000000000000000000000000000073ffffffffffffffffffffffffffffffffffffffff16635d3b1d307f00000000000000000000000000000000000000000000000000000000000000007f000000000000000000000000000000000000000000000000000000000000000060037f000000000000000000000000000000000000000000000000000000000000000060016040518663ffffffff1660e01b81526004016105669594939291906110c3565b602060405180830381600087803b15801561058057600080fd5b505af1158015610594573d6000803e3d6000fd5b505050506040513d601f19601f820116820180604052508101906105b89190610eda565b905050505050565b6000600160009054906101000a900473ffffffffffffffffffffffffffffffffffffffff16905090565b6000600161ffff16905090565b60008080549050905090565b6000600160149054906101000a900460ff16905090565b600060606000600160149054906101000a900460ff166001811115610668577f4e487b7100000000000000000000000000000000000000000000000000000000600052602160045260246000fd5b600060018111156106a2577f4e487b7100000000000000000000000000000000000000000000000000000000600052602160045260246000fd5b14905060007f0000000000000000000000000000000000000000000000000000000000000000600254426106d6919061122c565b119050600080600080549050119050600080471190508380156106f65750825b80156106ff5750815b80156107085750805b955050505050915091565b7f000000000000000000000000000000000000000000000000000000000000000034101561076d576040517f84da4c9d00000000000000000000000000000000000000000000000000000000815260040160405180910390fd5b600060018111156107a7577f4e487b7100000000000000000000000000000000000000000000000000000000600052602160045260246000fd5b600160149054906101000a900460ff1660018111156107ef577f4e487b7100000000000000000000000000000000000000000000000000000000600052602160045260246000fd5b14610826576040517f3c415f9900000000000000000000000000000000000000000000000000000000815260040160405180910390fd5b6000339080600181540180825580915050600190039060005260206000200160009091909190916101000a81548173ffffffffffffffffffffffffffffffffffffffff021916908373ffffffffffffffffffffffffffffffffffffffff1602179055503373ffffffffffffffffffffffffffffffffffffffff16347f24db4f65d53d68dc208151fc0a00d767da628055a922836a07edef3b5732f9a260405160405180910390a3565b6000600361ffff16905090565b6000808281548110610917577f4e487b7100000000000000000000000000000000000000000000000000000000600052603260045260246000fd5b9060005260206000200160009054906101000a900473ffffffffffffffffffffffffffffffffffffffff169050919050565b600080805490508260008151811061098a577f4e487b7100000000000000000000000000000000000000000000000000000000600052603260045260246000fd5b602002602001015161099c919061138e565b905060008082815481106109d9577f4e487b7100000000000000000000000000000000000000000000000000000000600052603260045260246000fd5b9060005260206000200160009054906101000a900473ffffffffffffffffffffffffffffffffffffffff16905080600160006101000a81548173ffffffffffffffffffffffffffffffffffffffff021916908373ffffffffffffffffffffffffffffffffffffffff1602179055506000600160146101000a81548160ff02191690836001811115610a93577f4e487b7100000000000000000000000000000000000000000000000000000000600052602160045260246000fd5b0217905550600067ffffffffffffffff811115610ad9577f4e487b7100000000000000000000000000000000000000000000000000000000600052604160045260246000fd5b604051908082528060200260200182016040528015610b075781602001602082028036833780820191505090505b5060009080519060200190610b1d929190610c12565b504260028190555060008173ffffffffffffffffffffffffffffffffffffffff1647604051610b4b9061103a565b60006040518083038185875af1925050503d8060008114610b88576040519150601f19603f3d011682016040523d82523d6000602084013e610b8d565b606091505b5050905080610bc8576040517f3a47374900000000000000000000000000000000000000000000000000000000815260040160405180910390fd5b8173ffffffffffffffffffffffffffffffffffffffff167f601e33d170071d70bb66dd1d0ea49f34527d57cbf762ee37fd7c54f7fc12ef5a60405160405180910390a25050505050565b828054828255906000526020600020908101928215610c8b579160200282015b82811115610c8a5782518260006101000a81548173ffffffffffffffffffffffffffffffffffffffff021916908373ffffffffffffffffffffffffffffffffffffffff16021790555091602001919060010190610c32565b5b509050610c989190610c9c565b5090565b5b80821115610cb5576000816000905550600101610c9d565b5090565b6000610ccc610cc7846111a8565b611183565b90508083825260208201905082856020860282011115610ceb57600080fd5b60005b85811015610d1b5781610d018882610e01565b845260208401935060208301925050600181019050610cee565b5050509392505050565b6000610d38610d33846111d4565b611183565b905082815260208101848484011115610d5057600080fd5b610d5b84828561131b565b509392505050565b600082601f830112610d7457600080fd5b8135610d84848260208601610cb9565b91505092915050565b60008083601f840112610d9f57600080fd5b8235905067ffffffffffffffff811115610db857600080fd5b602083019150836001820283011115610dd057600080fd5b9250929050565b600082601f830112610de857600080fd5b8135610df8848260208601610d25565b91505092915050565b600081359050610e10816114a3565b92915050565b600081519050610e25816114a3565b92915050565b60008060208385031215610e3e57600080fd5b600083013567ffffffffffffffff811115610e5857600080fd5b610e6485828601610d8d565b92509250509250929050565b600060208284031215610e8257600080fd5b600082013567ffffffffffffffff811115610e9c57600080fd5b610ea884828501610dd7565b91505092915050565b600060208284031215610ec357600080fd5b6000610ed184828501610e01565b91505092915050565b600060208284031215610eec57600080fd5b6000610efa84828501610e16565b91505092915050565b60008060408385031215610f1657600080fd5b6000610f2485828601610e01565b925050602083013567ffffffffffffffff811115610f4157600080fd5b610f4d85828601610d63565b9150509250929050565b610f6081611260565b82525050565b610f6f81611272565b82525050565b610f7e8161127e565b82525050565b6000610f8f82611205565b610f998185611210565b9350610fa981856020860161132a565b610fb28161147b565b840191505092915050565b610fc6816112f7565b82525050565b6000610fd9600083611221565b9150610fe48261148c565b600082019050919050565b610ff88161129b565b82525050565b61100781611309565b82525050565b611016816112c9565b82525050565b611025816112d3565b82525050565b611034816112e3565b82525050565b600061104582610fcc565b9150819050919050565b60006020820190506110646000830184610f57565b92915050565b600060408201905061107f6000830185610f57565b61108c6020830184610f57565b9392505050565b60006040820190506110a86000830185610f66565b81810360208301526110ba8184610f84565b90509392505050565b600060a0820190506110d86000830188610f75565b6110e5602083018761102b565b6110f26040830186610fef565b6110ff606083018561101c565b61110c6080830184610ffe565b9695505050505050565b600060208201905061112b6000830184610fbd565b92915050565b6000602082019050611146600083018461100d565b92915050565b6000606082019050611161600083018661100d565b61116e602083018561100d565b61117b604083018461100d565b949350505050565b600061118d61119e565b9050611199828261135d565b919050565b6000604051905090565b600067ffffffffffffffff8211156111c3576111c261144c565b5b602082029050602081019050919050565b600067ffffffffffffffff8211156111ef576111ee61144c565b5b6111f88261147b565b9050602081019050919050565b600081519050919050565b600082825260208201905092915050565b600081905092915050565b6000611237826112c9565b9150611242836112c9565b925082821015611255576112546113bf565b5b828203905092915050565b600061126b826112a9565b9050919050565b60008115159050919050565b6000819050919050565b60008190506112968261148f565b919050565b600061ffff82169050919050565b600073ffffffffffffffffffffffffffffffffffffffff82169050919050565b6000819050919050565b600063ffffffff82169050919050565b600067ffffffffffffffff82169050919050565b600061130282611288565b9050919050565b60006113148261129b565b9050919050565b82818337600083830152505050565b60005b8381101561134857808201518184015260208101905061132d565b83811115611357576000848401525b50505050565b6113668261147b565b810181811067ffffffffffffffff821117156113855761138461144c565b5b80604052505050565b6000611399826112c9565b91506113a4836112c9565b9250826113b4576113b36113ee565b5b828206905092915050565b7f4e487b7100000000000000000000000000000000000000000000000000000000600052601160045260246000fd5b7f4e487b7100000000000000000000000000000000000000000000000000000000600052601260045260246000fd5b7f4e487b7100000000000000000000000000000000000000000000000000000000600052602160045260246000fd5b7f4e487b7100000000000000000000000000000000000000000000000000000000600052604160045260246000fd5b6000601f19601f8301169050919050565b50565b600281106114a05761149f61141d565b5b50565b6114ac816112c9565b81146114b757600080fd5b5056fea2646970667358221220c0a18643749be6e196b391b37222650d5eb15a9736d43b604363e12e64fc552c64736f6c63430008040033",
  "linkReferences": {},
  "deployedLinkReferences": {}
}